:100000000C9425010C944D010C944D010C944D0160
:100010000C944D010C944D010C944D010C944D0128
:100020000C944D010C944D010C94210A0C94900AEF
:100030000C944D010C944D010C944D010C944D0108
:100040000C944D010C944D010C944D010C944D01F8
:100050000C944D010C944D010C944D010C94C20C68
:100060000C944D010C944D010C944D010C944D01D8
:100070000C944D010C944D010C944D010C944D01C8
:100080000C944D010C944D010C944D010C944D01B8
:100090000C944D010C944D010C944D010C944D01A8
:1000A0000C944D010C944D010C944D013D3D3D3D92
:1000B0003D3D3D3D3D3D3D00566965746475696E4D
:1000C0006F2054657374207769726520646F6E6564
:1000D0002C20616C6C2070696E7320617265204FFA
:1000E0004B2100566965746475696E6F20546573A1
:1000F00074207769726520646F6E652C20616C6C6A
:100100002070696E7320617265204F4B21000000E2
:100110000000240027002A002D003000000000000D
:10012000250028002B002E003100000000002300D5
:10013000260029002C002F000404040404030405F5
:100140000202020204030202020206060606060674
:10015000040402020204040408020110408040105A
:1001600020408040800802040180402010020110DD
:100170008010204040200000000200090F00000312
:100180000401000C0000000000000000000000005E
:100190000000000000080B00020202000009040039
:1001A00000010202000005240010010524010101E4
:1001B00004240206052406000107058103100040FF
:1001C00009040100020A00000007050202400000C5
:1001D000070583024000000403090412010002EF36
:1001E0000201404123378000010102030141726492
:1001F00075696E6F204C4C430041726475696E6F77
:10020000204D6963726F00417574686F723A204DBA
:10021000722E4E676F63202D2030393338203032F4
:1002200032203530300057656C636F6D6520746F18
:1002300020566965746475696E6F2C2074657374DB
:1002400020626567696E2100280D11241FBECFEF63
:10025000DAE0DEBFCDBF23E0A2E4B2E001C01D9230
:10026000A338B207E1F712E0A0E0B1E0EAE4F2E27D
:1002700002C005900D92A234B107D9F711E0C5E292
:10028000D1E004C02197FE010E942B0FC432D10798
:10029000C9F70E94670D0C9423110C940000FC0117
:1002A00080918702882311F13FB7F89482E0809310
:1002B000E9002091F200822F90E01816190614F43C
:1002C00081E090E0882339F0289A44E64093860242
:1002D0004091F1004083222339F02091F200211156
:1002E00003C02BE62093E8003FBF08958FEF9FEFF8
:1002F00008952FB7F89483E08093E9009091E80087
:10030000892F807295FF04C09091F20080E4891BD0
:100310002FBF089580917E0281110DC082E08093ED
:100320007A0284E080937B0210927D0210927C021C
:1003300081E080937E028AE792E008954091740202
:100340005091750220917202309173024217530747
:10035000B4F49091E8009570E1F39091E80092FD7B
:1003600019C08093F10080917402909175020196FA
:100370008F739927892B19F48EEF8093E800809171
:1003800074029091750201969093750280937402A5
:1003900081E0089580E00895EF92FF920F931F93FC
:1003A000CF93DF93F82E192FE62E042F81E0860FCE
:1003B000880F0E949E0183E00E949E01CF2DD12FC5
:1003C000EC0EFD2EF11CCE15DF05B9F007FF13C0B2
:1003D000FE0184910E949E01182F80E00E949E01E0
:1003E000812321968111EFCFDF91CF911F910F9142
:1003F000FF90EF9008958881EDCF81E0F5CFDF92F7
:10040000EF92FF920F931F93CF93DF93D82E8A0121
:10041000EB017B01E40EF51ECE15DF0559F0D7FE8A
:1004200012C0FE0184910E949E0121968111F4CF99
:100430000FEF1FEFC801DF91CF911F910F91FF9038
:10044000EF90DF9008958881EECF0F931F93CF93A5
:10045000DF931F92CDB7DEB782E0898342E450E09C
:1004600065E971E080E80E94FF010E948A01DC01D9
:1004700012960D911C910115110589F0D801ED918D
:10048000FC910280F381E02DBE016F5F7F4FC801B8
:10049000099597FD04C0F80100851185ECCF89818D
:1004A0000F90DF91CF911F910F910895615030F01F
:1004B0002091F100FC0120830196F8CF289A84E670
:1004C000809386020895CF93DF931F92CDB7DEB756
:1004D0006983DC01ED91FC910280F381E02D41E024
:1004E00050E0BE016F5F7F4F09950F90DF91CF9174
:1004F000089583E08093E9008091F200882319F049
:100500008AE38093E80008950E94790190E00895BD
:10051000CF93DF931F92CDB7DEB7FC01848595851D
:1005200097FD08C02FEF3FEF358724870F90DF91AD
:10053000CF910895CE0101960E944F01019719F4C1
:10054000898190E0F3CF8FEF9FEFF0CF0F931F9350
:10055000CF93DF931F92CDB7DEB78C01FC0184856A
:10056000958597FF0BC0CE0101960E944F01019720
:1005700071F4898190E0F80195878487F80184857A
:1005800095850F90DF91CF911F910F9108958FEF77
:100590009FEFF1CFFC018485958597FD0BC09FB738
:1005A000F89482E08093E9008091F2009FBF90E090
:1005B000019608959FB7F89482E08093E9008091B6
:1005C000F2009FBF90E0089581508F3008F047C03F
:1005D000E82FF0E0E251FD4F0C942B0F0B030F03BB
:1005E000FD02030307032F032F032F031203180336
:1005F0001C03200326032F032A03809180008F779A
:10060000809380000895809180008F7DF9CF809144
:100610008000877FF5CF84B58F7784BD089584B53A
:100620008F7DFBCF809190008F778093900008950D
:10063000809190008F7DF9CF80919000877FF5CFDA
:100640008091C0008F778093C00008958091C00092
:100650008F7DF9CF8091C200877F8093C20008957B
:10066000CF93DF93282F30E0F901EA58FE4F8491B1
:10067000F901E95AFE4FD491F901E85CFE4FC491AB
:10068000CC23A1F081110E94E402EC2FF0E0EE0FE8
:10069000FF1FE65DFE4FA591B491EC91ED2381E043
:1006A00090E009F480E0DF91CF91089580E090E040
:1006B000FACF1F93CF93DF93282F30E0F901EA5848
:1006C000FE4F8491F901E95AFE4FD491F901E85C9B
:1006D000FE4FC491CC23A9F0162F81110E94E40291
:1006E000EC2FF0E0EE0FFF1FE45EFE4FA591B491FA
:1006F0008FB7F894EC91111108C0D095DE23DC93EC
:100700008FBFDF91CF911F910895DE2BF8CFCF934C
:10071000DF9390E0FC01E95AFE4F2491885C9E4FE4
:10072000FC0184918823C9F090E0880F991FFC0197
:10073000E25FFE4FA591B491FC01E45EFE4FC591CE
:10074000D49161110DC09FB7F8948C9120958223AC
:100750008C938881282328839FBFDF91CF910895B0
:10076000623051F49FB7F8943C91822F8095832397
:100770008C93E8812E2BEFCF8FB7F894EC912E2B32
:100780002C938FBFEACF3FB7F89480916E0290917F
:100790006F02A0917002B091710226B5A89B05C0AE
:1007A0002F3F19F00196A11DB11D3FBFBA2FA92FF0
:1007B000982F8827BC01CD01620F711D811D911DED
:1007C00042E0660F771F881F991F4A95D1F7089559
:1007D0008F929F92AF92BF92CF92DF92EF92FF9251
:1007E0004B015C010E94C3036B017C010E94C303A7
:1007F0006C197D098E099F09683E7340810591053A
:10080000A8F321E0821A9108A108B10888EEC80E69
:1008100083E0D81EE11CF11C81149104A104B104F1
:1008200029F7FF90EF90DF90CF90BF90AF909F900F
:100830008F9008958F929F92AF92BF92CF92DF9246
:10084000EF92FF920F931F93CF93DF936C017B0185
:100850008A0180910D01882309F45CC08091870290
:10086000882309F457C08091780280FF05C08091E9
:10087000E00082608093E000E801B12C8AEFA82EAE
:1008800093E0892E2AE3922E209711F4BB20D9F110
:100890000E94790181110AC0AA94AA20D9F161E0CD
:1008A00070E080E090E00E94E803EECF8C171D0618
:1008B00011F00CF08C2F9FB7F8948092E9002091F2
:1008C000E80025FD02C09FBFDFCF282F30E0C21B0C
:1008D000D30BF701815020F041914093F100FACF02
:1008E000E20EF31EBB2021F09092E800B12CEBCF7A
:1008F0008091E80085FDE7CF9092E800BB24B39497
:10090000209709F3F3CF5D9A84E68093770210165F
:1009100011063CF081E090E0F6019383828310E0C1
:1009200000E0C801DF91CF911F910F91FF90EF90F0
:10093000DF90CF90BF90AF909F908F900895FC0173
:10094000448155816081718188E892E00C941A0499
:100950000895CF93DF93EC011A821B821C821D82C3
:100960008E8D8823A1F0EC89FD89309711F0CE019E
:100970000995EE89FF89309711F0CE010995E88D30
:10098000F98D309721F0CE01DF91CF910994DF915D
:10099000CF9108950895CF92DF92EF92FF920F9337
:1009A0001F93CF93DF938C01F801C281D381908193
:1009B0008181209709F45BC0F801808191810097C3
:1009C00011F00E94CB040E94C3036B017C014E8195
:1009D0005F81688579858A819B81AC81BD81840F27
:1009E000951FA61FB71FC816D906EA06FB0690F08A
:1009F0004E815F816885798584179507A607B707BB
:100A0000D8F44E815F8168857985C416D506E606DF
:100A1000F70690F04E815F8168857985C416D5060A
:100A2000E606F706A8F44E815F816885798584170C
:100A30009507A607B70760F0CA86DB86EC86FD86B9
:100A4000EE85FF85CE010995CE82DF82E886F986A4
:100A50000888D989C02D209709F0AECFDF91CF91BA
:100A60001F910F91FF90EF90DF90CF900895092F85
:100A7000182F0115110509F097CFF0CFDC01129660
:100A8000ED91FC9113973097C1F0E617F70741F409
:100A90002089318913963C932E9312970895FC0177
:100AA00080899189009749F086179707C1F7DB0184
:100AB00050968D919C91918B808B08950F931F93ED
:100AC000CF93DF93EC018E8D811102C081E08E8F78
:100AD0001A821B821C821D821B8E1A8E0A891B8918
:100AE000BE01C8010E943E05D8011296ED91FC910D
:100AF00013973097D1F41396DC93CE9312970E94FC
:100B0000C3030A811B812C813D81601B710B820B09
:100B1000930B6E837F8388879987198A188ADF9160
:100B2000CF911F910F910895FC01808991890097C1
:100B3000D9F7D18BC08BE3CFFC01778B668B0C94FC
:100B40005E05FC01758B648B0C945E05FC01168EB2
:100B5000BC01828993890C943E05DC015A96ED9183
:100B6000FC91309709F0099488E892E00E94CA024B
:100B7000892BA1F088E892E00E94880280916802A7
:100B8000882361F080914003811108C08091480260
:100B9000811104C082E293E00C945E050895FC018B
:100BA00001900020E9F73197AF01481B590BBC01B8
:100BB00088E892E00C941A048BE391E00C94CF0542
:100BC0000F931F93CF93DF938C01D0E0C0E0F80127
:100BD000EC0FFD1F6491662341F088E892E00E94CB
:100BE0006302892B11F02196F2CF0E94DC058C0F55
:100BF0009D1FDF91CF911F910F910895CF93DF93A8
:100C00000E94CF05EC010E94DC058C0F9D1FDF9137
:100C1000CF9108950F931F93CF93DF93EC018A8DAB
:100C20009B8D892BD1F561E08DE00E948703809137
:100C3000480281112DC06091000181E068278DE09C
:100C40000E9459030091000110910101013011052A
:100C500021F48EE391E00E94FE0581E090E0012BFB
:100C600011F090E080E0909301018093000180EA10
:100C700096E8A1E0B0E08A839B83AC83BD838DE4DA
:100C800096E09B8F8A8FDF91CF911F910F910895EE
:100C900088EB90E00E94E005D5CF1B8E1A8EC7CF5F
:100CA000BF92CF92DF92EF92FF920F931F93CF9359
:100CB000DF93EC01EA8DFB8D309709F009948DE507
:100CC00091E00E94FE0581E08093470281E493E079
:100CD0000E94A6058BE4E82E82E0F82E02E010E0E8
:100CE000DD24D39480910E0190910F01801791071C
:100CF00054F062E0802F0E948703F701D1927F01B8
:100D00000F5F1F4FEFCF80EA96E8A1E0B0E08A8343
:100D10009B83AC83BD8389E996E09B8F8A8FDF91AB
:100D2000CF911F910F91FF90EF90DF90CF90BF90E8
:100D300008951B8E1A8E10926802809168028111AC
:100D400051C01A821B821C821D8288EA96E0E5CF80
:100D50001B8E1A8E1092460282E090E0909345021C
:100D600080934402EE24E3940091440210914502E2
:100D700080910E0190910F01801791072CF1B09096
:100D80004702FF24F394B110F12CC801875B9D4FFB
:100D90006C01FC0180818F1551F0802F0E9430037F
:100DA000E0926802B816190649F4E09246020F5F15
:100DB0001F4F1093450200934402D6CFF816190630
:100DC000B1F7F601F082F3CF8091460281111092C3
:100DD000680280917E038111B0CF80E693E00E948B
:100DE0005E05ABCF83EE90E00E94E00582E293E0E7
:100DF0000E94A60581E08093480281E493E0DF91A0
:100E0000CF911F910F91FF90EF90DF90CF90BF9007
:100E10000C945E050F931F93CF93DF93EC018881B1
:100E20009981009759F02A813B812617370730F0C6
:100E300081E0DF91CF911F910F9108958B016F5F3A
:100E40007F4F0E945610009759F0998388831B8327
:100E50000A832C813D81232B59F7FC011082E8CFB6
:100E600080E0E7CFCF93DF93EC01888199810097F1
:100E700011F00E94CD0F198218821D821C821B82E4
:100E80001A82DF91CF910895EF92FF920F931F93F3
:100E9000CF93DF93EC017B01198218821B821A82A7
:100EA0001D821C82FB0101900020E9F731978F0120
:100EB000061B170BB8010E940A07811109C0CE0159
:100EC000DF91CF911F910F91FF90EF900C9432071B
:100ED0001D830C83B70188819981DF91CF911F9188
:100EE0000F91FF90EF900C941C11CF92DF92EF9234
:100EF000FF920F931F93CF93DF93CDB7DEB7629727
:100F00000FB6F894DEBF0FBECDBF8C01CB01F80148
:100F10001182108213821282158214824AE09E018D
:100F20002F5F3F4F6901B9010E949D0EF6010190AC
:100F30000020E9F731977F01EC18FD08B701C801DF
:100F40000E940A07811112C0C8010E9432076296EE
:100F50000FB6F894DEBF0FBECDBFDF91CF911F91CA
:100F60000F91FF90EF90DF90CF900895F801F582F8
:100F7000E482B601808191810E941C11E8CFEF923A
:100F8000FF920F931F93CF93DF93EC01FB01E0805F
:100F9000F180E114F10411F10481158101151105AD
:100FA000A9F08C819D81080F191FB801CE010E9404
:100FB0000A07882399F0288139818C819D81B701A6
:100FC000820F931F0E941C111D830C83CE01DF91A1
:100FD000CF911F910F91FF90EF900895CE010E9445
:100FE0003207F4CFFC0180819181009711F00C94BD
:100FF000CD0F08950C94CD0F0C94CD0F8F929F922E
:10100000AF92BF92CF92DF92EF92FF92CF93DF9396
:10101000CDB7DEB7A7970FB6F894DEBF0FBECDBF32
:10102000BC0120910E0130910F01233331058CF169
:10103000C6970CF43FC066537109CE0182960E9498
:10104000750761E771E0CE0101960E944407BE0179
:101050006E5D7F4FCE0101960E94BF070E949F04E4
:10106000CE0101960E94F207CE0182960E94F207FD
:10107000A7960FB6F894DEBF0FBECDBFDF91CF911C
:10108000FF90EF90DF90CF90BF90AF909F908F90A8
:1010900008952731310529F4429734F062517109DE
:1010A000CCCF2233310534F46E3071051CF06E5014
:1010B0007109C3CF6B01770FEE08FF08F7FE2CC054
:1010C0006DE288E892E00E94630222273327A9019B
:1010D0002C193D094E095F0919A2CE0181967C01A8
:1010E0009AE0892E912CA12CB12CCA01B901A5013D
:1010F00094010E94090F605DF70162937F01211541
:1011000031054105510589F7E114F10409F4B0CF27
:10111000C7010E94CF05ACCFA701960119A2CE014D
:1011200081967C018AE0882E912CA12CB12CCA01D9
:10113000B901A50194010E94090F605DF701629356
:101140007F01211531054105510589F7DDCFEF926A
:10115000FF920F931F93CF93DF93EC01EA8DFB8DEA
:10116000309709F0099410924302109242028CEADF
:1011700090E00E94E00582E090E09093430280932B
:101180004202009142021091430280910E0190911F
:101190000F018017910784F1F801E75BFD4FF080A4
:1011A000E090470281E0E11080E0F816F9F0802F2E
:1011B0000E943003FE101AC080E891E00E94CF0523
:1011C00083E791E0FF2011F089E791E00E94CF05CD
:1011D000C8010E94FE070E94DC051A821B821C8245
:1011E0001D8284EF98E012C01B8E1A8E80914202FD
:1011F000909143020196C1CF80E492E4AFE0B0E069
:101200008A839B83AC83BD838FE099E09B8F8A8F19
:10121000DF91CF911F910F91FF90EF9008951B8E5A
:101220001A8E80E693E0DF91CF911F910F91FF908E
:10123000EF900C94A605DF92EF92FF920F931F930D
:10124000CF93DF93EC01EA8DFB8D309709F0099481
:1012500002E010E080910E0190910F01801791073C
:1012600094F000FD07C062E0802F0E9487030F5FAB
:101270001F4FF0CF61E0802F0E94870360E0802F36
:101280000E945903F4CF80E197E2A0E0B0E08A83A6
:101290009B83AC83BD8387E599E09B8F8A8FDF9129
:1012A000CF911F910F91FF90EF90DF9008951B8ECB
:1012B0001A8E02E010E085E8E82E81E0F82EDD24A9
:1012C000D39480910E0190910F018017910734F112
:1012D0008BE8E81681E0F80641F0EFE8EE16E1E071
:1012E000FE0619F00D301105B1F000FD14C0802F7D
:1012F0000E943003892B79F489E991E00E94CF059F
:10130000C8010E94FE0785EA91E00E94CF050E9475
:10131000DC05D09268020F5F1F4FD3CF80E197E2C8
:10132000A0E0B0E08A839B83AC83BD8389E999E028
:10133000B4CF1B8E1A8E02E010E080910E019091C6
:101340000F018017910794F000FF07C062E0802F23
:101350000E9487030F5F1F4FF0CF61E0802F0E9434
:10136000870360E0802F0E945903F4CF80E197E269
:10137000A0E0B0E08A839B83AC83BD8381EC99E0DD
:101380008CCF1B8E1A8EC2E0D0E005E811E0DD2480
:10139000D394E0900E01F0900F01EC16FD0694F44A
:1013A0000BE412E0C2E0D0E0DD24D394EC16FD069D
:1013B00064F160E08C2F0E948703F801D1928F01C5
:1013C0002196F4CFF1E00B381F0739F081E00F3898
:1013D000180719F0CD30D105B1F0C0FF14C08C2F23
:1013E0000E943003892B79F489E991E00E94CF05AE
:1013F000CE010E94FE0785EA91E00E94CF050E947F
:10140000DC05D09268022196C4CF809168028111D8
:1014100013C08DEA91E00E94FE0581E493E00E94F2
:101420005E0584EE92E0DF91CF911F910F91FF90C6
:10143000EF90DF900C94A6058DED91E00E94FE05E3
:10144000F0CF1F920F920FB60F9211248F939F939C
:101450008091E1009091E100937F9093E10083FF00
:101460000FC01092E90091E09093EB001092EC0015
:1014700092E39093ED001092870298E09093F00031
:1014800082FF22C093E09093E9009091F2009923AB
:1014900019F09AE39093E80090917702992341F034
:1014A00090917702915090937702911101C05D98CD
:1014B00090918602992341F09091860291509093E9
:1014C0008602911101C0289884FF18C08091E20023
:1014D0008E7E81608093E2008091E1008F7E809318
:1014E000E100809178028E7E8061809378029F91E6
:1014F0008F910F900FBE0F901F90189580FFF7CF20
:101500008091E2008E7E80618093E2008091E10014
:101510008E7E8093E100809178028E7E8160E5CF9F
:101520001F920F920FB60F921124CF92DF92EF927B
:10153000FF920F931F932F933F934F935F936F935C
:101540007F938F939F93AF93BF93EF93FF93CF932B
:10155000DF93CDB7DEB76C97DEBFCDBF1092E90049
:101560008091E80083FF25C068E0CE0145960E9487
:10157000560282EF8093E8008D8987FF39C09091F1
:10158000E80090FFFCCF982F907609F034C19E8937
:101590004F89588D2F89F88C911131C0803861F5B1
:1015A000809179028093F1001092F1008EEF809388
:1015B000E8006C960FB6F894DEBF0FBECDBFDF918A
:1015C000CF91FF91EF91BF91AF919F918F917F91BB
:1015D0006F915F914F913F912F911F910F91FF90CC
:1015E000EF90DF90CF900F900FBE0F901F90189547
:1015F0009EEF9093E800C7CF1092F100D5CF9130C5
:1016000059F48111D3CF4130510581F6809179028F
:101610008D7F80937902CACF933049F48111C6CF70
:101620004130510519F6809179028260F2CF9530F0
:1016300041F48091E80080FFFCCF20682093E30014
:10164000B5CF963009F0A9C00B8D1C8D22E0109209
:10165000E9001092750210927402F2122EC01092DC
:101660007302109272020E9425021F8299E09983F0
:10167000FA8291E09E8390EA98879AEF9987209169
:10168000740230917502275F3F4F3C832B838D831B
:101690001092E90010927502109274021093730276
:1016A0000093720249E050E0BE016F5F7F4F80E01F
:1016B0000E94FF010E94250279CF109373020093CC
:1016C00072020E948A01DC0112960D911C91011593
:1016D000110509F451C1D801ED91FC910480F58107
:1016E000E02DBE016B5E7F4FC8010995009709F0A0
:1016F0003EC1F80100851185EACFF3E0FF120EC06C
:101700008F89882309F440C0823061F440E86DE09D
:1017100089EF91E00E94CC01811148CF81E2809352
:10172000EB0047CF813029F440E86BE08DEE91E08B
:10173000F1CF833099F70E948A01DC011296ED9077
:10174000FC908E010F5F1F4F6801E114F10479F0E6
:10175000D701ED91FC910680F781E02DB801C7011A
:101760000995080F111DF701E084F184EECFD8012F
:101770001C92F60101900020E9F73197BF016C1926
:101780007D0940E0C601C6CF67ED71E0FB014491E1
:1017900050E080E80E94FF0109CF973009F4BECFE6
:1017A000983021F481E08093F10000CF993009F066
:1017B000FDCE837009F0B2CFE3E2F1E081E031E0E9
:1017C00096E32191222371F08093E9003093EB009E
:1017D000DF0111972C912093EC009093ED008F5F27
:1017E000873079F78EE78093EA001092EA008F89BC
:1017F00080938702DBCE8B8D9C8D1092E900109236
:101800007502109274029093730280937202898D14
:10181000811192C08E899D89913A49F4813209F0F3
:101820007DCF47E050E066E071E080E0B3CF9132D9
:1018300009F074CF833269F48F89988DB0E0A0E00D
:101840008093020190930301A0930401B0930501DA
:10185000ADCE803269F48091E80082FFFCCF67E072
:1018600086E091E00E9456028BEF8093E8009ECEC6
:10187000823209F09BCE8F8980930D01EEEFFFE756
:10188000859194918B3F9C4D51F1E0E0F8E080917F
:10189000060190910701A0910801B0910901803BD8
:1018A0009440A105B105F1F480910D0180FD1AC0AD
:1018B000EE3F8AE0F80789F587E797E79183808311
:1018C000809160008093760288E19BE00FB6F894E7
:1018D000A895809360000FBE9093600067CEEEEFF6
:1018E000FAE0D5CF808191818737974709F05ECEA6
:1018F000A895809160008861809360008091760255
:1019000080936000EE3F2AE0F20789F08091FE0AA2
:101910009091FF0A9183808349CE8081918187379E
:10192000980751F29093FF0A8093FE0AC5CF109258
:10193000FF0A1092FE0A3ACE0E948A01DC0112963A
:101940000D911C910115110509F4E8CED801ED9116
:10195000FC910190F081E02DBE016B5E7F4FC801CC
:101960000995811123CEF80100851185EBCF18165A
:1019700019060CF41BCED2CEF1E0FF12BECE6BEDF9
:1019800071E004CF1F920F920FB60F9211242F9384
:101990003F938F939F93AF93BF9380916A029091EF
:1019A0006B02A0916C02B0916D023091690223E04C
:1019B000230F2D3758F50196A11DB11D2093690203
:1019C00080936A0290936B02A0936C02B0936D02B5
:1019D00080916E0290916F02A0917002B09171029D
:1019E0000196A11DB11D80936E0290936F02A0938A
:1019F0007002B0937102BF91AF919F918F913F910F
:101A00002F910F900FBE0F901F90189526E8230F6F
:101A10000296A11DB11DD2CFFC0112821382148245
:101A2000158289EA94E09787868716821782108646
:101A30001186118A108A8AE191E09183808388ED72
:101A400092E0938B828B718F608FCF010C945E0537
:101A5000E8E8F2E01382128288EE93E0A0E0B0E0C2
:101A600084839583A683B7838DE291E091838083FD
:101A70008FEF9FEF95878487A0EEB2E011961C92BE
:101A80001E92ECEDF2E0B183A083F093D902E093D3
:101A9000D80267EA78E080E693E00E940C0D6AE0E5
:101AA00076E081E493E00E940C0D60E576E082E24E
:101AB00093E00E940C0D6DEA75E083E093E00E94D4
:101AC0000C0D6BE179E084EE92E00C940C0DCF9359
:101AD000DF93CDB7DEB72C970FB6F894DEBF0FBEFD
:101AE000CDBF789484B5826084BD84B5816084BDA7
:101AF00085B5826085BD85B5816085BD80916E00AC
:101B0000816080936E0010928100809181008260DC
:101B10008093810080918100816080938100809119
:101B2000800081608093800080919100826080932A
:101B3000910080919100816080939100809190004C
:101B40008160809390008091C10084608093C10087
:101B50008091C10082608093C1008091C10081604A
:101B60008093C1008091C30081608093C300809105
:101B7000C00082608093C0008091C2008160809329
:101B8000C20080917A00846080937A0080917A000C
:101B9000826080937A0080917A00816080937A00DD
:101BA00080917A00806880937A0010928702109268
:101BB0007902109278028091D70081608093D700DB
:101BC00080EA8093D80089B5806189BD89B582603B
:101BD00089BD09B400FEFDCF61E070E080E090E0D7
:101BE0000E94E8038091D8008F7C80618093D800A8
:101BF0008091E000807F8093E0008091E1008E7E04
:101C00008093E1008DE08093E200559A209A5D98E0
:101C100028988FEF9FEF90939502809394021091F4
:101C20000D016AE070E080E090E00E94E80311237B
:101C3000B1F387E190E090930F0180930E016FE183
:101C400070E0CE0101960E9475076FE072E0CE0150
:101C500007960E944407BE016F5F7F4FCE01079633
:101C60000E94BF078C01FC01E480F580FFE0EF0ECD
:101C7000F11CB7010E940A07882309F45AC0F80131
:101C800020813181848195816AE172E0820F931F06
:101C90000E941C11F801F582E482C8010E949F0491
:101CA0000E94DC05CE0107960E94F207CE01019644
:101CB0000E94F20786E292E00E94E00565E871E08A
:101CC000CE0101960E9444076AE272E0CE010796B7
:101CD0000E944407BE016F5F7F4FCE0107960E94AE
:101CE000BF070E949F040E94DC05CE0107960E9458
:101CF000F207CE0101960E94F20787E092E00E946F
:101D0000E00582E293E00E94A60580E693E00E944F
:101D1000A60581E493E00E94A60500E010E088EDAE
:101D200092E00E94CB0401151105C9F30E94000046
:101D3000F6CFC8010E943207B0CFBB274A3031F43A
:101D4000992322F4BDE2909581959F4F0C94A90EA2
:101D5000BB27FB015527AA27880F991FAA1FA41785
:101D600010F0A41B83955051B9F7A05DAA3308F079
:101D7000A95DA193009779F7B111B1931192CB01AD
:101D80000C94C20EDC01FC01672F71917723E1F7FF
:101D9000329704C07C916D9370836291AE17BF0738
:101DA000C8F308952F923F924F925F926F927F9265
:101DB0008F929F92AF92BF92CF92DF92EF92FF925B
:101DC0000F931F93CF93DF93CDB7DEB7CA1BDB0B07
:101DD0000FB6F894DEBF0FBECDBF09942A883988AC
:101DE00048885F846E847D848C849B84AA84B984B3
:101DF000C884DF80EE80FD800C811B81AA81B981BF
:101E0000CE0FD11D0FB6F894DEBF0FBECDBFED01D2
:101E10000895A1E21A2EAA1BBB1BFD010DC0AA1F2B
:101E2000BB1FEE1FFF1FA217B307E407F50720F043
:101E3000A21BB30BE40BF50B661F771F881F991FBE
:101E40001A9469F760957095809590959B01AC0107
:101E5000BD01CF010895EE0FFF1F0590F491E02D15
:101E600009940F931F93CF93DF938230910510F461
:101E700082E090E0E0918103F091820330E020E085
:101E8000B0E0A0E0309799F42115310509F44AC07B
:101E9000281B390B24303105D8F58A819B816115C7
:101EA000710589F1FB0193838283FE0111C040819A
:101EB00051810281138148175907E0F048175907EB
:101EC00099F4109761F012960C93129713961C9345
:101ED0003296CF01DF91CF911F910F91089500931A
:101EE000810310938203F4CF2115310551F042177D
:101EF000530738F0A901DB019A01BD01DF01F801A8
:101F0000C1CFEF01F9CF9093820380938103CDCFAE
:101F1000FE01E20FF31F819391932250310939831F
:101F20002883D7CF20917F0330918003232B41F466
:101F300020911201309113013093800320937F038D
:101F400020911001309111012115310541F42DB777
:101F50003EB74091140150911501241B350BE091BF
:101F60007F03F0918003E217F307A0F42E1B3F0BD1
:101F70002817390778F0AC014E5F5F4F24173507FB
:101F800048F04E0F5F1F5093800340937F0381936F
:101F900091939FCFF0E0E0E09CCFCF93DF93009749
:101FA000E9F0FC01329713821282A0918103B09173
:101FB0008203ED0130E020E01097A1F4208131810F
:101FC000820F931F20917F033091800328173907D8
:101FD00009F061C0F0938003E0937F03DF91CF911C
:101FE0000895EA01CE17DF07E8F54A815B819E017B
:101FF00041155105B1F7E901FB83EA8349915991F4
:10200000C40FD51FEC17FD0761F480819181029602
:10201000840F951FE90199838883828193819B8333
:102020008A83F0E0E0E012968D919C9113970097DF
:10203000B9F52D913C911197CD010296820F931F16
:1020400020917F03309180032817390739F63097A4
:1020500051F51092820310928103B0938003A093F4
:102060007F03BCCFD383C28340815181840F951FEE
:10207000C817D90761F44E5F5F4F88819981480F77
:10208000591F518340838A819B81938382832115C9
:10209000310509F0B0CFF0938203E09381039ECF26
:1020A000FD01DC01C0CF13821282D7CFB0E0A0E0E7
:1020B000ECE5F0E10C94D40E8C01009751F4CB01C7
:1020C0000E94310F8C01C801CDB7DEB7E0E10C945E
:1020D000F00EFC01E60FF71F9C0122503109E217B8
:1020E000F30708F49DC0D901CD91DC911197C61773
:1020F000D70798F0C530D10530F3CE010497861785
:10210000970708F3C61BD70B2297C193D1936D9302
:102110007C93CF010E94CD0FD6CF5B01AC1ABD0AD4
:102120004C018C0E9D1EA0918103B0918203512C15
:10213000412CF12CE12C109731F580917F03909187
:1021400080038815990509F05CC04616570608F00B
:1021500058C08091100190911101009741F48DB702
:102160009EB74091140150911501841B950BE817FF
:10217000F90708F055C0F0938003E0937F03F9015D
:1021800071836083A0CF8D919C91119712966C9072
:10219000129713967C901397A815B90559F56C0101
:1021A00042E0C40ED11CCA14DB0420F1AC014A1970
:1021B0005B09DA011296159780F06282738251836F
:1021C0004083D9016D937C93E114F10471F0D70140
:1021D0001396FC93EE93129776CF22968C0F9D1F49
:1021E000F90191838083F301EFCFF0938203E093B1
:1021F000810369CF4816590608F42C017D01D301EB
:102200009ACFCB010E94310F7C01009749F0AE01BB
:10221000B8010E941311C8010E94CD0F870153CF4E
:1022200010E000E050CFFB01DC0102C001900D92F4
:1022300041505040D8F70895FB01DC0101900D9208
:0A2240000020E1F70895F894FFCFA5
:10224A000100FFFFFFFF00E10000000000001E0088
:10225A0000008303800000000000CA04FA07A105F9
:10226A009C0500C180810000000000000063021A82
:10227A000484027902CA028802A6020D0A0048737F
:10228A00686F702074657374732041726475696E27
:10229A006F206C616E2033204F4B212100546573EF
:1022AA007420492F4F204C6F7720626567696E3A18
:1022BA000041004C4F573A2000484947483A20000D
:1022CA0050696E20004D6963726F00556E6F004D44
:1022DA006567612032353630004D617920626520AC
:1022EA0070696E2000206572726F722000436F6EF3
:1022FA0067726174756C6174696F6E2C20566965BA
:10230A00746475696E6F20697320776F726B696E7A
:10231A0067207665727920676F6F642100536F6D4D
:10232A00652070696E206861732070726F706C65C9
:10233A006D20706C6561736520636865636B2068E6
:10234A006172647761726520616761696E21005408
:10235A00686572652061726520002070696E206E62
:10236A0065656420636865636B0056657273696F9F
:10237A006E206669726D5761726520746573743A6E
:02238A00200031
:00000001FF
