:100000000C9428020C9459020C9459020C94590235
:100010000C9459020C9459020C9459020C945902F4
:100020000C9459020C9459020C9459020C945902E4
:100030000C9459020C9459020C9459020C945902D4
:100040000C9459020C9459020C9459020C945902C4
:100050000C9459020C9459020C9459020C942E0BD6
:100060000C9459020C94F80A0C94CE0A0C94590280
:100070000C9459020C9459020C9459020C94590294
:100080000C9459020C9459020C9459020C94590284
:100090000C9459020C9459020C9459020C94590274
:1000A0000C9459020C9459020C9459020C94590264
:1000B0000C9459020C9459020C9459020C94590254
:1000C0000C9459020C9459020C9459020C94590244
:1000D0000C9459020C9459020C9459020C94590234
:1000E0000C9459020C945C090C945D0A0C945B020C
:1000F0000C94300A0C94F0080C94D1030C94DB0996
:100100000C94B6030C94B8040C9419060C94DF03F9
:100110000C94F1030C945E060C94B4020C94F70753
:100120000C94D5030C94940B0C94B6060C945B06BB
:100130000C94CB030C94A7060C94A0020C94BC0561
:100140000C94B0050C94F6030C94C8030C94C403EF
:100150000C94ED030C9447030C9473090C949102D6
:100160000C94E9030C94AB050C94BC030C94C202F0
:100170000C94F7030C94FB030C94DB030C94C00366
:100180000C948B090C94E3030C94FA020C94D9049C
:1001900000407A10F35A00A0724E18090010A5D43E
:1001A000E80000E87648170000E40B54020000CA9B
:1001B0009A3B000000E1F5050000809698000000E1
:1001C00040420F000000A086010000001027000040
:1001D0000000E803000000006400000000000A00C6
:1001E000000000000100000000002C76D888DC67C9
:1001F0004F0823DFC1DFAE59E1B1B796E5E3E45321
:10020000C63AE651997696E8E6C28426EB898C9B3D
:1002100062ED407C6FFCEFBC9C9F40F2BAA56FA5DD
:10022000F490055A2AF75C936B6CF9676DC11BFC5F
:10023000E0E40D47FEF520E6B500D0ED902E03007A
:10024000943577050080841E080000204E0A0000C7
:1002500000C80C333333330F986E12831141EF8D86
:100260002114893BE65516CFFEE6DB18D1844B38C6
:100270001BF77C1D901DA4BBE424203284725E22F7
:100280008100C9F124ECA1E53D273D3D3D3D3D3DCB
:100290003D3D3D3D3D00566965746475696E6F2056
:1002A00054657374207769726520646F6E652C20C5
:1002B000616C6C2070696E7320617265204F4B21F8
:1002C00000566965746475696E6F20546573742097
:1002D0007769726520646F6E652C20616C6C20708C
:1002E000696E7320617265204F4B21000000210070
:1002F000240027002A002D003000330001010000F7
:10030000040107010A0100002200250028002B003B
:100310002E003100340002010000050108010B012C
:10032000000020002300260029002C002F003200AE
:100330000001000003010601090105050505070587
:1003400008080808020202020A0A08080404040451
:10035000010101010101010103030303030303037D
:10036000040707070C0C0C0C0C0C0C0C020202020C
:1003700006060606060606060B0B0B0B0B0B0B0BF5
:1003800001021020200808102040102040800201A7
:10039000020108040201010204081020408080408C
:1003A000201008040201800402018040201008048B
:1003B0000201080402010102040810204080010229
:1003C00004081020408000000A0B02090C0D0E08E2
:1003D000070304010000000000000000000000000E
:1003E000000000000000000000000000000000000D
:1003F00000001211100000000000000000000000CA
:10040000000000000000000000000000417574685A
:100410006F723A204D722E4E676F63202D20303957
:10042000333820303232203530300057656C636FFE
:100430006D6520746F20566965746475696E6F2CE4
:10044000207465737420626567696E210000940BE7
:1004500011241FBECFEFD1E2DEBFCDBF00E00CBF45
:1004600025E0AAE8B3E001C01D92A932B207E1F786
:1004700013E0A0E0B2E0E8E0F6E200E00BBF02C06B
:1004800007900D92AA38B107D9F712E0C8E2D2E07E
:1004900000E006C021970109802FFE010E94E410B0
:1004A000C732D10780E00807A9F70E94EB0B0C9434
:1004B00002130C940000AF92BF92CF92DF92EF92A2
:1004C000FF920F931F93CF93DF936C017B018B01FE
:1004D000040F151FEB015E01AE18BF08C017D1074E
:1004E00059F06991D601ED91FC910190F081E02DD8
:1004F000C6011995892B79F7C501DF91CF911F911D
:100500000F91FF90EF90DF90CF90BF90AF90089544
:10051000FC01448155816081718181EE93E00C94EE
:100520005B02FC01538D448D252F30E0842F90E039
:10053000821B930B541710F0CF96089501970895DE
:10054000FC01918D828D981761F0A28DAE0FBF2FA7
:10055000B11D5D968C91928D9F5F9F73928F90E0FD
:1005600008958FEF9FEF0895FC01918D828D98176C
:1005700031F0828DE80FF11D858D90E008958FEFA9
:100580009FEF0895FC01918D228D892F90E0805C72
:100590009F4F821B91098F739927089581EE93E0F5
:1005A0000E94C20221E0892B09F420E0822F0895E5
:1005B000FC01A48DA80FB92FB11DA35ABF4F2C91D8
:1005C000848D90E001968F739927848FA689B789CF
:1005D0002C93A089B1898C91837080648C93938DC6
:1005E000848D981306C00288F389E02D80818F7D69
:1005F00080830895EF92FF920F931F93CF93DF9321
:10060000EC0181E0888F9B8D8C8D98131AC0E8894E
:10061000F989808185FF15C09FB7F894EE89FF891D
:100620006083E889F98980818370806480839FBFBB
:1006300081E090E0DF91CF911F910F91FF90EF90BB
:100640000895F62E0B8D10E00F5F1F4F0F731127CB
:10065000E02E8C8D8E110CC00FB607FCFACFE88906
:10066000F989808185FFF5CFCE010E94D802F1CFB4
:10067000EB8DEC0FFD2FF11DE35AFF4FF0829FB77A
:10068000F8940B8FEA89FB8980818062CFCFCF936A
:10069000DF93EC01888D8823B9F0AA89BB89E889AA
:1006A000F9898C9185FD03C0808186FD0DC00FB650
:1006B00007FCF7CF8C9185FFF2CF808185FFEDCFCE
:1006C000CE010E94D802E9CFDF91CF91089580E05A
:1006D00090E0892B29F00E94CE0281110E94000037
:1006E00080E090E0892B49F080E090E0892B29F0B0
:1006F0000E94000081110E94000080E090E0892BA0
:1007000049F080E090E0892B29F00E9400008111DF
:100710000E94000080E090E0892B49F080E090E0AA
:10072000892B29F00E94000081110C94000008958B
:100730008150823108F05AC0E82FF0E08827EC554C
:10074000FC4F8F4F0C94E410C403C803B603BC03E2
:10075000C003F603CB03D103D503DB03DF03E303BD
:10076000E903ED03F603F103F703FB038091800037
:100770008F77809380000895809180008F7DF9CFDE
:1007800080918000877FF5CF84B58F7784BD0895F1
:1007900084B58F7DFBCF8091B0008F778093B000C0
:1007A00008958091B0008F7DF9CF809190008F7770
:1007B000809390000895809190008F7DF9CF809173
:1007C0009000877FF5CF8091A0008F778093A00065
:1007D00008958091A0008F7DF9CF8091A000877F40
:1007E000F5CF809120018F7780932001089580912B
:1007F00020018F7DF9CF80912001877FF5CFCF93A6
:10080000DF93282F30E0F901EA53FC4F8491F9017E
:10081000E058FC4FD491F901E65CFC4FC491CC2325
:10082000A1F081110E949803EC2FF0E0EE0FFF1F62
:10083000E05EFC4FA591B491EC91ED2381E090E056
:1008400009F480E0DF91CF91089580E090E0FACF45
:100850001F93CF93DF93282F30E0F901EA53FC4F29
:100860008491F901E058FC4FD491F901E65CFC4F0A
:10087000C491CC23A9F0162F81110E949803EC2F6C
:10088000F0E0EE0FFF1FEA5FFC4FA591B4918FB728
:10089000F894EC91111108C0D095DE23DC938FBF42
:1008A000DF91CF911F910895DE2BF8CFCF93DF9387
:1008B00090E0FC01E058FC4F2491865C9C4FFC01C9
:1008C00084918823C9F090E0880F991FFC01E451BE
:1008D000FD4FA591B491FC01EA5FFC4FC591D49105
:1008E00061110DC09FB7F8948C91209582238C9351
:1008F0008881282328839FBFDF91CF91089562309C
:1009000051F49FB7F8943C91822F809583238C9368
:10091000E8812E2BEFCF8FB7F894EC912E2B2C93F0
:100920008FBFEACF3FB7F8948091DD039091DE034B
:10093000A091DF03B091E00326B5A89B05C02F3F2F
:1009400019F00196A11DB11D3FBFBA2FA92F982FF5
:100950008827BC01CD01620F711D811D911D42E0F0
:10096000660F771F881F991F4A95D1F7089508953C
:10097000CF93DF93EC011A821B821C821D828E8D25
:100980008823A1F0EC89FD89309711F0CE011995EB
:10099000EE89FF89309711F0CE011995E88DF98D18
:1009A000309721F0CE01DF91CF911994DF91CF9153
:1009B00008950895CF92DF92EF92FF920F931F93C5
:1009C000CF93DF938C01F801C281D3819081818123
:1009D000209709F45BC0F80180819181009711F0A4
:1009E0000E94DA040E9492046B017C014E815F81B7
:1009F000688579858A819B81AC81BD81840F951F33
:100A0000A61FB71FC816D906EA06FB0690F04E814E
:100A10005F816885798584179507A607B707D8F49D
:100A20004E815F8168857985C416D506E606F7068E
:100A300090F04E815F8168857985C416D506E606FB
:100A4000F706A8F44E815F8168857985841795073C
:100A5000A607B70760F0CA86DB86EC86FD86EE85C2
:100A6000FF85CE011995CE82DF82E886F986088857
:100A7000D989C02D209709F0AECFDF91CF911F917A
:100A80000F91FF90EF90DF90CF900895092F182FCE
:100A90000115110509F097CFF0CFDC011296ED9109
:100AA000FC9113973097C1F0E617F70741F42089BE
:100AB000318913963C932E9312970895FC018089F7
:100AC0009189009749F086179707C1F7DB01509687
:100AD0008D919C91918B808B08950F931F93CF9351
:100AE000DF93EC018E8D811102C081E08E8F1A821E
:100AF0001B821C821D821B8E1A8E0A891B89BE01D5
:100B0000C8010E944D05D8011296ED91FC911397F2
:100B10003097D1F41396DC93CE9312970E949204EF
:100B20000A811B812C813D81601B710B820B930B11
:100B30006E837F8388879987198A188ADF91CF917E
:100B40001F910F910895FC01808991890097D9F731
:100B5000D18BC08BE3CFFC01778B668B0C946D053A
:100B6000FC01758B648B0C946D05FC01168EBC0129
:100B7000828993890C944D05DC015A96ED91FC9184
:100B8000309709F0199481EE93E00E94C202892BFC
:100B9000A1F081EE93E00E94A0028091D703882308
:100BA00061F08091E604811108C080919003811169
:100BB00004C088EC94E00C946D050895FC0101904C
:100BC0000020E9F73197AF01481B590BBC0181EEBA
:100BD00093E00C945B028EE692E00C94DE050F939A
:100BE0001F93CF93DF938C01D0E0C0E0F801EC0FAE
:100BF000FD1F6491662341F081EE93E00E94FA02AA
:100C0000892B11F02196F2CF0E94EB058C0F9D1FCE
:100C1000DF91CF911F910F910895CF93DF930E94A1
:100C2000DE05EC010E94EB058C0F9D1FDF91CF913B
:100C30000895CF93DF93EC018A8D9B8D892BD9F595
:100C400061E08DE00E9456048091900381112EC0D6
:100C50006091000281E068278DE00E942804809165
:100C6000000290910102019721F481E792E00E9435
:100C70000D0681E090E02091000230910102232BCB
:100C800011F090E080E0909301028093000280EAEE
:100C900096E8A1E0B0E08A839B83AC83BD838BE5BB
:100CA00096E09B8F8A8FDF91CF91089586E992E03D
:100CB0000E94EF05D4CF1B8E1A8EC6CFBF92CF9263
:100CC000DF92EF92FF920F931F93CF93DF93EC018C
:100CD000EA8DFB8D309709F0199480E992E00E942B
:100CE0000D0681E080938F0387EE94E00E94B505A6
:100CF00083E9E82E83E0F82E02E010E0DD24D394AF
:100D000080910202909103028017910754F062E0F3
:100D1000802F0E945604F701D1927F010F5F1F4F71
:100D2000EFCF80EA96E8A1E0B0E08A839B83AC83B2
:100D3000BD8387EA96E09B8F8A8FDF91CF911F91C9
:100D40000F91FF90EF90DF90CF90BF9008951B8E92
:100D50001A8E1092D7038091D703811151C01A8245
:100D60001B821C821D8286EB96E0E5CF1B8E1A8EBD
:100D700010928E0382E090E090938D0380938C0319
:100D8000EE24E39400918C0310918D038091020274
:100D900090910302801791072CF1B0908F03FF24EC
:100DA000F394B110F12CC8018F569C4F6C01FC01DB
:100DB00080818F1551F0802F0E94FF03E092D703AE
:100DC000B816190649F4E0928E030F5F1F4F109377
:100DD0008D0300938C03D6CFF8161906B1F7F601F0
:100DE000F082F3CF80918E0381111092D70380910E
:100DF00024058111B0CF86E095E00E946D05ABCF50
:100E000081EC92E00E94EF0588EC94E00E94B50529
:100E100081E08093900387EE94E0DF91CF911F9162
:100E20000F91FF90EF90DF90CF90BF900C946D05E5
:100E30000F931F93CF93DF93EC01888199810097E3
:100E400059F02A813B812617370730F081E0DF9186
:100E5000CF911F910F9108958B016F5F7F4F0E947B
:100E60001112009759F0998388831B830A832C8180
:100E70003D81232B59F7FC011082E8CF80E0E7CFBA
:100E8000CF93DF93EC0188819981009711F00E9444
:100E90008811198218821D821C821B821A82DF919E
:100EA000CF910895EF92FF920F931F93CF93DF930B
:100EB000EC01FB01E080F180E114F10411F1048107
:100EC000158101151105A9F08C819D81080F191F4D
:100ED000B801CE010E941807882399F02881398132
:100EE0008C819D81B701820F931F0E94FB121D838D
:100EF0000C83CE01DF91CF911F910F91FF90EF9066
:100F00000895CE010E944007F4CFEF92FF920F9315
:100F10001F93CF93DF93EC017B018A01BA010E94FA
:100F2000180781110BC0CE010E944007CE01DF914E
:100F3000CF911F910F91FF90EF9008951D830C8327
:100F4000B701888199810E94FB12F0CFEF92FF9246
:100F50000F931F93CF93DF93CDB7DEB762970FB692
:100F6000F894DEBF0FBECDBF8C01CB01F80111821A
:100F7000108213821282158214824AE09E012F5F32
:100F80003F4F7901B9010E943C0DF701019000200B
:100F9000E9F73197AF014E195F09B701C8010E9407
:100FA000850762960FB6F894DEBF0FBECDBFDF9106
:100FB000CF911F910F91FF90EF900895FC01118246
:100FC00010821382128215821482FB01019000208C
:100FD000E9F73197AF01461B570B0C948507FC01CD
:100FE00080819181009711F00C94881108950C94E0
:100FF00088110C9488118F929F92AF92BF92CF92DA
:10100000DF92EF92FF92CF93DF93CDB7DEB7A79732
:101010000FB6F894DEBF0FBECDBFBC012091020217
:1010200030910302233331058CF1C6970CF43FC095
:1010300066537109CE0182960E94A60764EA72E0A7
:10104000CE0101960E94DE07BE016E5D7F4FCE018C
:1010500001960E9452070E948802CE0101960E94CA
:10106000EF07CE0182960E94EF07A7960FB6F8947D
:10107000DEBF0FBECDBFDF91CF91FF90EF90DF902D
:10108000CF90BF90AF909F908F90089527313105FA
:1010900029F4429734F062517109CCCF22333105E3
:1010A00034F46E3071051CF06E507109C3CF6B01C2
:1010B000770FEE08FF08F7FE2CC06DE281EE93E09B
:1010C0000E94FA0222273327A9012C193D094E0953
:1010D0005F0919A2CE0181967C019AE0892E912C9C
:1010E000A12CB12CCA01B901A50194010E94C21022
:1010F000605DF70162937F012115310541055105BE
:1011000089F7E114F10409F4B0CFC7010E94DE05AC
:10111000ACCFA701960119A2CE0181967C018AE08D
:10112000882E912CA12CB12CCA01B901A5019401E2
:101130000E94C210605DF70162937F0121153105A5
:101140004105510589F7DDCFEF92FF920F931F9371
:10115000CF93DF93CDB7DEB7A1970FB6F894DEBF7C
:101160000FBECDBF7C01FB01E65FFD4F608170E0EB
:1011700090E080E00E94C20F20E030E048EC51E4B3
:101180000E945010F7011182108213821282158280
:1011900014828E010F5F1F4F21E043E00E941E0D5D
:1011A0000097D1F0FC0101900020E9F73197AF01E1
:1011B000481B590BBC01C7010E948507C701A196B6
:1011C0000FB6F894DEBF0FBECDBFDF91CF911F9158
:1011D0000F91FF90EF900895C7010E944007EECF56
:1011E000EF92FF920F931F93CF93DF9300D000D025
:1011F000CDB7DEB78C01DC015A96ED91FC915B977F
:10120000309709F0199410928B0310928A038AE8A0
:1012100092E00E94EF0582E090E090938B03809330
:101220008A0380918A0390918B032091020230916E
:101230000302281739070CF448C0FC01EF56FC4F95
:10124000E080F0908F0321E0F11020E0E216B9F188
:101250000E94FF03EF1033C083EB92E00E94DE0593
:1012600080918F03811154C086EA92E00E94DE05CE
:1012700080918A0390918B030E94FB0788EB92E098
:101280000E94DE0560918A0370918B03CE01019666
:101290000E94A408CE0101960E948802CE01019608
:1012A0000E94EF070E94EB05F8011282138214825C
:1012B00015828CE599E014C0FC01138E128E80918A
:1012C0008A0390918B030196A8CF80E492E4AFE06B
:1012D000B0E0F80182839383A483B58383E799E028
:1012E000938F828F08C05B961C921E925A9786E05D
:1012F00095E00E94B50526960FB6F894DEBF0FBEA6
:10130000CDBFDF91CF911F910F91FF90EF90089586
:101310008CEA92E0ABCFBF92CF92DF92EF92FF9236
:101320000F931F93CF93DF9300D000D0CDB7DEB7DC
:101330008C01DC015A96ED91FC915B97309709F096
:10134000199452E0E52EF12C809102029091030253
:101350008E159F059CF0E0FC08C062E08E2D0E9477
:101360005604BFEFEB1AFB0AEFCF61E08E2D0E940F
:10137000560460E08E2D0E942804F3CF80E197E2AE
:10138000A0E0B0E0F80182839383A483B5838BED62
:1013900099E0938F828F26960FB6F894DEBF0FBE2A
:1013A000CDBFDF91CF911F910F91FF90EF90DF9014
:1013B000CF90BF9008955B961C921E925A9732E090
:1013C000E32EF12C4AEBC42E42E0D42EBB24B3947E
:1013D00080910202909103028E159F05ACF1BDEC45
:1013E000CB16B2E0DB0649F0E1EDCE16E2E0DE0618
:1013F00021F0FDE0EF16F10419F1E0FC21C08E2D83
:101400000E94FF03892BE1F48BED92E00E94DE0540
:10141000C7010E94FB0787EE92E00E94DE05B7013C
:10142000CE0101960E94A408CE0101960E94880276
:10143000CE0101960E94EF070E94EB05B092D70300
:101440008FEFE81AF80AC4CF80E197E2A0E0B0E09D
:10145000F80182839383A483B58380E39AE099CFD4
:101460005B961C921E925A9722E0E22EF12C8091FC
:101470000202909103028E159F059CF0E0FE08C0C9
:1014800062E08E2D0E945604BFEFEB1AFB0AEFCFED
:1014900061E08E2D0E94560460E08E2D0E9428048B
:1014A000F3CF80E197E2A0E0B0E0F801828393837C
:1014B000A483B5838DE59AE06CCF5B961C921E9257
:1014C0005A9702E010E09AEBE92E92E0F92EBB2445
:1014D000B394C0900202D0900302C016D106ACF4BF
:1014E00083E9E82E83E0F82E02E010E0BB24B394F9
:1014F000C016D106ECF160E0802F0E945604D7019F
:10150000BD927D010F5F1F4FF3CFBDECEB16B2E034
:10151000FB0641F0E1EDEE16E2E0FE0619F00D30BB
:10152000110519F100FF21C0802F0E94FF03892BB4
:10153000E1F48BED92E00E94DE05C8010E94FB07FA
:1015400087EE92E00E94DE05B801CE0101960E946E
:10155000A408CE0101960E948802CE0101960E9445
:10156000EF070E94EB05B092D7030F5F1F4FB1CF7B
:101570008091D70381110DC08FEE92E00E940D067D
:1015800087EE94E00E946D058AE894E00E94B5051C
:1015900002CF8FE193E00E940D06F6CF1F920F92CB
:1015A0000FB60F9211240BB60F922F933F934F93C8
:1015B0005F936F937F938F939F93AF93BF93EF93BB
:1015C000FF9381EE93E00E94D802FF91EF91BF91CB
:1015D000AF919F918F917F916F915F914F913F91CB
:1015E0002F910F900BBE0F900FBE0F901F9018956C
:1015F0001F920F920FB60F9211240BB60F922F93DA
:101600008F939F93EF93FF93E091F103F091F20397
:101610008081E091F703F091F80382FD1DC0908175
:101620008091FA038F5F8F732091FB03821741F043
:10163000E091FA03F0E0EF51FC4F958F8093FA03AD
:10164000FF91EF919F918F912F910F900BBE0F9073
:101650000FBE0F901F9018958081F2CF1F920F92AE
:101660000FB60F9211242F933F938F939F93AF93B5
:10167000BF938091D9039091DA03A091DB03B091DD
:10168000DC033091D80323E0230F2D3758F5019662
:10169000A11DB11D2093D8038093D9039093DA0341
:1016A000A093DB03B093DC038091DD039091DE0314
:1016B000A091DF03B091E0030196A11DB11D8093BD
:1016C000DD039093DE03A093DF03B093E003BF91AB
:1016D000AF919F918F913F912F910F900FBE0F90DF
:1016E0001F90189526E8230F0296A11DB11DD2CF99
:1016F000FC01128213821482158288EB94E0978792
:1017000086871682178210861186118A108A84E5D0
:1017100092E0918380838EE794E0938B828B718F2C
:10172000608FCF010C946D05E1EEF3E0138212821D
:1017300088EE93E0A0E0B0E084839583A683B7832E
:1017400080E692E09183808385EC90E095878487A2
:1017500084EC90E09787868780EC90E0918B808B7B
:1017600081EC90E0938B828B82EC90E0958B848B64
:1017700086EC90E0978B868B118E128E138E148ED2
:10178000A6E8B4E011961C921E92E2E8F4E0B18360
:10179000A083F0937F04E0937E0460EF78E086E01E
:1017A00095E00E94780B69E176E087EE94E00E9474
:1017B000780B6EE576E088EC94E00E94780B6CEB99
:1017C00075E089EA94E00E94780B6BE879E08AE89A
:1017D00094E00C94780BCF93DF93CDB7DEB72C97C2
:1017E0000FB6F894DEBF0FBECDBF789484B582608B
:1017F00084BD84B5816084BD85B5826085BD85B5B5
:10180000816085BD80916E00816080936E00109232
:1018100081008091810082608093810080918100AD
:10182000816080938100809180008160809380003E
:101830008091B10084608093B1008091B00081609C
:101840008093B0008091910082608093910080919C
:1018500091008160809391008091900081608093DD
:1018600090008091A10082608093A1008091A100EE
:1018700081608093A1008091A00081608093A0008E
:1018800080912101826080932101809121018160FA
:1018900080932101809120018160809320018091BB
:1018A0007A00846080937A0080917A0082608093CD
:1018B0007A0080917A00816080937A0080917A002A
:1018C000806880937A001092C100E091F103F0915A
:1018D000F20382E08083E091ED03F091EE03108249
:1018E000E091EF03F091F0038FEC80831092F90305
:1018F000E091F503F091F60386E08083E091F30335
:10190000F091F403808180618083E091F303F09192
:10191000F403808188608083E091F303F091F40305
:10192000808180688083E091F303F091F4038081EB
:101930008F7D80838AEB92E08155934031F487E17B
:1019400090E0909303028093020266E470E0CE017F
:1019500001960E94A60767E573E0CE0107960E94F4
:10196000DE07BE016F5F7F4FCE0107960E945207D0
:101970008C01FC01E480F580FFE0EF0EF11CB70163
:101980000E941807882309F455C0F801208131818D
:101990008481958162E673E0820F931F0E94FB129F
:1019A000F801F582E482C8010E9488020E94EB05DA
:1019B000CE0107960E94EF07CE0101960E94EF0725
:1019C0008BE294E00E94EF056AEB72E0CE01019693
:1019D0000E94DE0762E773E0CE0107960E94DE07F1
:1019E000BE016F5F7F4FCE0107960E9452070E9493
:1019F00088020E94EB05CE0107960E94EF07CE01F8
:101A000001960E94EF078CE094E00E94EF0588ECBD
:101A100094E00E94B50586E095E00E94B50587EE4A
:101A200094E00E94B5058EE794E00E94DA040E94DB
:101A30006703F9CFC8010E944007B5CFEF920F931B
:101A40001F93CF93DF93E80134E047FD34E1042E88
:101A5000000C550B57FF03C0519541955109E32EDA
:101A6000022F242FAE010E94610DCE01DF91CF9194
:101A70001F910F91EF900895BB274A3031F49923BD
:101A800022F4BDE2909581959F4F0C94480DBB27A1
:101A9000FB015527AA27880F991FAA1FA41710F02A
:101AA000A41B83955051B9F7A05DAA3308F0A95D36
:101AB000A193009779F7B111B1931192CB010C94D6
:101AC000B20F8F929F92AF92BF92CF92DF92EF921E
:101AD000FF920F931F93CF93DF9300D000D000D0DD
:101AE000CDB7DEB76A01F22EB02E102FFBE3AF2E7A
:101AF000A01608F41BE31F5F012F27E0AE014F5F24
:101B00005F4F0E94DA0EBC018981982F9970913045
:101B100009F44EC09BE2E1FC04C09E2D9170E0FCF4
:101B200049C05E2D5071E82FE87083FF55C084E0F6
:101B3000911101C083E0EF2DE81B8F1508F0E0E064
:101B4000D6018E2F20E25523C9F1992329F0D60121
:101B50009C93C60101966C0196012D5F3F4FE2FEFA
:101B600033C08EE4D6018C9391E411969C93119727
:101B700012968C93D9018E2F90E281112AC0E20F28
:101B8000F32FF11D10828EEF9FEF29960FB6F89478
:101B9000DEBF0FBECDBFDF91CF911F910F91FF90A0
:101BA000EF90DF90CF90BF90AF909F908F9008956F
:101BB0009DE2B7CF90E2B5CF2D9381508111FCCF3C
:101BC000CE0ED11CE0E0C1CF8EE6D6018C9391E61B
:101BD000CCCF9D938150D1CF482F447082FF3DC020
:101BE00084E0911101C083E08F1510F4EF2DE81B04
:101BF000D6018E2F20E2552309F1992329F0D60131
:101C00009C93C60101966C0196012D5F3F4FE2FE49
:101C10001BC089E4D6018C938EE411968C931197A6
:101C200086E412968C93D9018E2F90E2882309F4D2
:101C3000A6CF9D938150FACF2D9381508111FCCF77
:101C4000CE0ED11CE0E0D9CF89E6D6018C938EE68A
:101C500011968C93119786E6E4CF9B0177FF02C023
:101C600030E020E0A1E0B0E0911102C0B0E0A0E0DF
:101C7000F9013196AE0FBF1F8B2C912CBB2009F4BC
:101C800061C05401EFEFAE1ABE0AAA0DBB1DFA16D1
:101C90001B0619F014F04F2D4A1B511188C0E3FCAC
:101CA00059C07601A42FB0E2A1114FC0C40ED11CBF
:101CB000992309F45BC040E0D6011196F6019083A8
:101CC0006D01552309F448C0012F060F9A81582F42
:101CD000507184FF03C0913309F4015010160CF0C9
:101CE00047C0093008F008E0EEE2FE2E5B01A01AC2
:101CF000B10885019194819491082F3F320729F40E
:101D0000D601FC92F60131966F016217730794F1C8
:101D1000021713077CF5DB01A21BB30BAA24A394C3
:101D2000B12CAC0EBD1EAA0DBB1D11968C9121507D
:101D30003109D601119628153905F4F0F601808392
:101D40006D01DBCFB12CA12CA0CFF701B1937F01A6
:101D5000A150AACF9111B0CFD601942F50E302C069
:101D60005D9391509111FCCFC40ED11C40E0ACCFDB
:101D700001E0BACF80E3DBCF6217730731F496330B
:101D800088F4953311F4552369F0F6018083FD0141
:101D9000842F90E2811108C0A40FB11D1C9290E025
:101DA00080E0F3CE81E3F1CF91938150F3CF911195
:101DB00083CF8ACF283008F027E03327DA01990F44
:101DC000311D87FD916000966105710539F432601F
:101DD0002E5F3D9330E32A95E1F708959F3F30F061
:101DE00080387105610509F03C5F3C5F3D9391309F
:101DF00008F08068911DDF93CF931F930F93FF929C
:101E0000EF92192F987F9695E92F96959695E90F61
:101E1000FF27E651FE4F99273327EE24FF24A70121
:101E2000E70105900894079428F4360FE71EF81E82
:101E3000491F511D660F771F881F991F0694A1F730
:101E40000590079428F4E70EF81E491F561FC11D80
:101E5000770F881F991F661F0694A1F705900794B6
:101E600028F4F80E491F561FC71FD11D880F991F50
:101E7000661F771F0694A1F70590079420F4490F79
:101E8000561FC71FD81F990F661F771F881F0694FC
:101E9000A9F784911095177041F0D695C79557957D
:101EA0004795F794E7941A95C1F7E0E9F1E0689453
:101EB0001590159135916591959105907FE27395F7
:101EC000E118F10A430B560BC90BD009C0F7E10C1E
:101ED000F11E431F561FC91FD01D7EF4703311F42D
:101EE0008A95E6CFE894015030F0080F0AF40027F5
:101EF000021708F4202F2395022F7A3328F079E374
:101F00007D932A95E9F710C07D932A9589F606946A
:101F100097956795379517951794E118F10A430B34
:101F2000560BC90BD00998F023957E9173957A339F
:101F300008F070E37C932013B8F77E9170617D9375
:101F400030F0839571E37D9370E32A95E1F71124D6
:101F5000EF90FF900F911F91CF91DF91992787FD0F
:101F600090950895DC01FC01672F71917723E1F7CB
:101F7000329704C07C916D9370836291AE17BF0756
:101F8000C8F30895E89409C097FB3EF490958095B6
:101F9000709561957F4F8F4F9F4F9923A9F0F92F2F
:101FA00096E9BB279395F695879577956795B795AD
:101FB000F111F8CFFAF4BB0F11F460FF1BC06F5F93
:101FC0007F4F8F4F9F4F16C0882311F096E911C0A5
:101FD000772321F09EE8872F762F05C0662371F0C6
:101FE00096E8862F70E060E02AF09A95660F771FDA
:101FF000881FDAF7880F9695879597F9089597F9CE
:102000009F6780E870E060E008959FEF80EC08959E
:1020100000240A94161617061806090608950024C7
:102020000A9412161306140605060895092E039441
:10203000000C11F4882352F0BB0F40F4BF2B11F4B5
:1020400060FF04C06F5F7F4F8F4F9F4F089557FD14
:102050009058440F551F59F05F3F71F04795880F16
:1020600097FB991F61F09F3F79F0879508951216AD
:1020700013061406551FF2CF4695F1DF08C0161659
:1020800017061806991FF1CF86957105610508940A
:102090000895E894BB2766277727CB0197F9089521
:1020A0000E9464100C9416100E940F1058F00E94A9
:1020B000081040F029F45F3F29F00C94FF0F5111F4
:1020C0000C944A100C9405100E94271068F3992371
:1020D000B1F3552391F3951B550BBB27AA27621724
:1020E0007307840738F09F5F5F4F220F331F441F31
:1020F000AA1FA9F335D00E2E3AF0E0E832D0915065
:102100005040E695001CCAF72BD0FE2F29D0660F51
:10211000771F881FBB1F261737074807AB07B0E894
:1021200009F0BB0B802DBF01FF2793585F4F3AF09A
:102130009E3F510578F00C94FF0F0C944A105F3FBE
:10214000E4F3983ED4F3869577956795B795F79520
:102150009F5FC9F7880F911D9695879597F9089508
:10216000E1E0660F771F881FBB1F621773078407A4
:10217000BA0720F0621B730B840BBA0BEE1F88F7B3
:10218000E0950895A1E21A2EAA1BBB1BFD010DC00C
:10219000AA1FBB1FEE1FFF1FA217B307E407F50717
:1021A00020F0A21BB30BE40BF50B661F771F881FF3
:1021B000991F1A9469F760957095809590959B0189
:1021C000AC01BD01CF010895EE0FFF1F881F8BBF2B
:1021D0000790F691E02D19940F931F93CF93DF93FF
:1021E0008230910510F482E090E0E0912705F091B3
:1021F000280530E020E0B0E0A0E0309799F4211508
:10220000310509F44AC0281B390B24303105D8F5B3
:102210008A819B816115710589F1FB01938382831A
:10222000FE0111C040815181028113814817590775
:10223000E0F04817590799F4109761F012960C9343
:10224000129713961C933296CF01DF91CF911F9175
:102250000F9108950093270510932805F4CF2115B9
:10226000310551F04217530738F0A901DB019A01FB
:10227000BD01DF01F801C1CFEF01F9CF909328052F
:1022800080932705CDCFFE01E20FF31F8193919339
:102290002250310939832883D7CF209125053091E9
:1022A0002605232B41F4209106023091070230933A
:1022B0002605209325052091040230910502211561
:1022C000310541F42DB73EB7409108025091090203
:1022D000241B350BE0912505F0912605E217F30745
:1022E000A0F42E1B3F0B2817390778F0AC014E5F86
:1022F0005F4F2417350748F04E0F5F1F5093260598
:1023000040932505819391939FCFF0E0E0E09CCF2F
:10231000CF93DF930097E9F0FC013297138212828A
:10232000A0912705B0912805ED0130E020E010973D
:10233000A1F420813181820F931F209125053091D6
:1023400026052817390709F061C0F0932605E093A8
:102350002505DF91CF910895EA01CE17DF07E8F553
:102360004A815B819E0141155105B1F7E901FB836B
:10237000EA8349915991C40FD51FEC17FD0761F409
:10238000808191810296840F951FE901998388834A
:10239000828193819B838A83F0E0E0E012968D91A5
:1023A0009C9113970097B9F52D913C911197CD0110
:1023B0000296820F931F209125053091260528173C
:1023C000390739F6309751F51092280510922705F4
:1023D000B0932605A0932505BCCFD383C28340814B
:1023E0005181840F951FC817D90761F44E5F5F4F65
:1023F00088819981480F591F518340838A819B812D
:10240000938382832115310509F0B0CFF09328051D
:10241000E09327059ECFFD01DC01C0CF138212821D
:10242000D7CF4F925F926F927F928F929F92AF928F
:10243000BF92CF92DF92EF92FF920F931F93CF93B1
:10244000DF938C01009799F4CB01DF91CF911F911D
:102450000F91FF90EF90DF90CF90BF90AF909F9043
:102460008F907F906F905F904F900C94EC10FC01D8
:10247000E60FF71F9C0122503109E217F30708F419
:10248000AEC0D901CD91DC911197C617D70720F1C5
:10249000C530D10578F0CE0104978617970750F024
:1024A000C61BD70B2297C193D1936D937C93CF0119
:1024B0000E948811C801DF91CF911F910F91FF9069
:1024C000EF90DF90CF90BF90AF909F908F907F90D4
:1024D0006F905F904F9008955B01AC1ABD0A4C015C
:1024E0008C0E9D1EA0912705B0912805512C412CE2
:1024F000F12CE12C109731F580912505909126055E
:102500008815990509F05CC04616570608F058C0B2
:102510008091040290910502009741F48DB79EB717
:102520004091080250910902841B950BE817F907A6
:1025300008F055C0F0932605E0932505F901718355
:102540006083B8CF8D919C91119712966C901297E1
:1025500013967C901397A815B90559F56C0142E0C4
:10256000C40ED11CCA14DB0420F1AC014A195B096A
:10257000DA011296159780F062827382518340834C
:10258000D9016D937C93E114F10471F0D701139696
:10259000FC93EE9312978ECF22968C0F9D1FF9011C
:1025A00091838083F301EFCFF0932805E093270513
:1025B00081CF4816590608F42C017D01D3019ACF2A
:1025C000CB010E94EC107C01009749F0AE01B801EC
:1025D0000E94F212C8010E94881187016BCF10E09F
:1025E00000E068CFFB01DC0102C001900D92415078
:1025F0005040D8F70895FB01DC0101900D920020B6
:08260000E1F70895F894FFCF03
:1026080001004500000029058000020306070105B6
:102618000F1011121718191A403F0D0C2E2D2C2BC4
:102628004E4D4C4B4A4948473C3B3A39383736358A
:10263800324634332A29282726252423161514132D
:1026480061605F5E5D5C5B5A5958575655545352EA
:1026580000000000D904F707B005AB050000000032
:10266800FA025B0291024703C202A002B4020D0AF9
:10267800004873686F7020746573747320417264C6
:1026880075696E6F206C616E2033204F4B212100DD
:102698005465737420492F4F204C6F77206265670B
:1026A800696E3A0041004C4F573A20004849474864
:1026B8003A200050696E200009004D656761323587
:1026C80036302050726F20456D62656400556E6F1C
:1026D800004D6567612032353630004D61792062E2
:1026E800652070696E2000206572726F7220004349
:1026F8006F6E67726174756C6174696F6E2C2056A9
:102708006965746475696E6F20697320776F726B81
:10271800696E67207665727920676F6F6421005350
:102728006F6D652070696E206861732070726F70BC
:102738006C656D20706C6561736520636865636B9B
:1027480020686172647761726520616761696E21D2
:10275800004D6963726F0054686572652061726527
:1027680020002070696E206E65656420636865636B
:102778006B0056657273696F6E206669726D57617A
:0A278800726520746573743A200036
:00000001FF
