:100000000C9427010C944F010C944F010C944F0158
:100010000C944F010C944F010C944F010C944F0120
:100020000C944F010C944F010C94170A0C94860AFF
:100030000C944F010C944F010C944F010C944F0100
:100040000C944F010C944F010C944F010C944F01F0
:100050000C944F010C944F010C944F010C94B80C6C
:100060000C944F010C944F010C944F010C944F01D0
:100070000C944F010C944F010C944F010C944F01C0
:100080000C944F010C944F010C944F010C944F01B0
:100090000C944F010C944F010C944F010C944F01A0
:1000A0000C944F010C944F010C944F013D3D3D3D8C
:1000B0003D3D3D3D3D3D3D00566965746475696E4D
:1000C0006F2054657374207769726520646F6E6564
:1000D0002C20616C6C2070696E7320617265204FFA
:1000E0004B2100566965746475696E6F20546573A1
:1000F00074207769726520646F6E652C20616C6C6A
:100100002070696E7320617265204F4B21000000E2
:100110000000240027002A002D003000000000000D
:10012000250028002B002E003100000000002300D5
:10013000260029002C002F000404040404030405F5
:100140000202020204030202020206060606060674
:10015000040402020204040408020110408040105A
:1001600020408040800802040180402010020110DD
:100170008010204040200000000200090F00000312
:100180000401000C0000000000000000000000005E
:100190000000000000080B00020202000009040039
:1001A00000010202000005240010010524010101E4
:1001B00004240206052406000107058103100040FF
:1001C00009040100020A00000007050202400000C5
:1001D000070583024000000403090412010002EF36
:1001E0000201404123368000010102030141726493
:1001F00075696E6F204C4C430041726475696E6F77
:10020000204C656F6E6172646F00417574686F7227
:100210003A204D722E4E676F63202D2030393338CF
:1002200020303232203530300057656C636F6D6599
:1002300020746F20566965746475696E6F2C207424
:1002400065737420626567696E2100001E0D1124BC
:100250001FBECFEFDAE0DEBFCDBF23E0A2E8B2E001
:1002600001C01D92A43AB207E1F712E0A0E0B1E0AC
:10027000E8E8F2E202C005900D92A238B107D9F782
:1002800011E0C7E2D1E004C02197FE010E944A0FAD
:10029000C632D107C9F70E945E0D0C9442110C942E
:1002A0000000FC018091A802882311F13FB7F89467
:1002B00082E08093E9002091F200822F90E01816EE
:1002C000190614F481E090E0882339F0289844E678
:1002D0004093A7024091F1004083222339F02091FE
:1002E000F200211103C02BE62093E8003FBF0895E0
:1002F0008FEF9FEF08952FB7F89483E08093E90084
:100300009091E800892F807295FF04C09091F200CF
:1003100080E4891B2FBF089580919F0281110DC039
:1003200082E080939B0284E080939C0210929E0264
:1003300010929D0281E080939F028BE992E00895E4
:10034000409195025091960220919302309194022F
:1003500042175307B4F49091E8009570E1F390913F
:10036000E80092FD19C08093F10080919502909170
:10037000960201968F739927892B19F48EEF80933B
:10038000E8008091950290919602019690939602D2
:100390008093950281E0089580E00895EF92FF92A6
:1003A0000F931F93CF93DF93F82E192FE62E042F70
:1003B00081E0860F880F0E94A00183E00E94A001C7
:1003C000CF2DD12FEC0EFD2EF11CCE15DF05B9F08F
:1003D00007FF13C0FE0184910E94A001182F80E046
:1003E0000E94A001812321968111EFCFDF91CF914F
:1003F0001F910F91FF90EF9008958881EDCF81E0DC
:10040000F5CFDF92EF92FF920F931F93CF93DF937D
:10041000D82E8A01EB017B01E40EF51ECE15DF0517
:1004200059F0D7FE12C0FE0184910E94A0012196CE
:100430008111F4CF0FEF1FEFC801DF91CF911F9112
:100440000F91FF90EF90DF9008958881EECF0F938A
:100450001F93CF93DF931F92CDB7DEB782E08983DE
:1004600042E450E065E971E080E80E9401020E94E8
:100470008C01DC0112960D911C910115110589F07A
:10048000D801ED91FC910280F381E02DBE016F5FF8
:100490007F4FC801099597FD04C0F80100851185BB
:1004A000ECCF89810F90DF91CF911F910F9108952B
:1004B000615030F02091F100FC0120830196F8CFCB
:1004C000289884E68093A7020895CF93DF931F9224
:1004D000CDB7DEB76983DC01ED91FC910280F38139
:1004E000E02D41E050E0BE016F5F7F4F09950F9016
:1004F000DF91CF91089583E08093E9008091F2002D
:10050000882319F08AE38093E80008950E947B0114
:1005100090E00895CF93DF931F92CDB7DEB7FC0133
:100520008485958597FD08C02FEF3FEF3587248799
:100530000F90DF91CF910895CE0101960E94510155
:10054000019719F4898190E0F3CF8FEF9FEFF0CFFF
:100550000F931F93CF93DF931F92CDB7DEB78C011C
:10056000FC018485958597FF0BC0CE0101960E9402
:100570005101019771F4898190E0F8019587848792
:10058000F801848595850F90DF91CF911F910F9190
:1005900008958FEF9FEFF1CFFC018485958597FD3E
:1005A0000BC09FB7F89482E08093E9008091F2003D
:1005B0009FBF90E0019608959FB7F89482E08093E2
:1005C000E9008091F2009FBF90E0089581508F3044
:1005D00008F047C0E82FF0E0E051FD4F0C944A0FBF
:1005E0000D031103FF020503090331033103310336
:1005F00014031A031E032203280331032C038091E2
:1006000080008F77809380000895809180008F7D97
:10061000F9CF80918000877FF5CF84B58F7784BD37
:10062000089584B58F7DFBCF809190008F77809364
:1006300090000895809190008F7DF9CF8091900077
:10064000877FF5CF8091C0008F778093C000089599
:100650008091C0008F7DF9CF8091C200877F809309
:10066000C2000895CF93DF93282F30E0F901EA58B4
:10067000FE4F8491F901E95AFE4FD491F901E85CEB
:10068000FE4FC491CC23A1F081110E94E602EC2F11
:10069000F0E0EE0FFF1FE65DFE4FA591B491EC91E7
:1006A000ED2381E090E009F480E0DF91CF9108959F
:1006B00080E090E0FACF1F93CF93DF93282F30E0B4
:1006C000F901EA58FE4F8491F901E95AFE4FD4919D
:1006D000F901E85CFE4FC491CC23A9F0162F8111DB
:1006E0000E94E602EC2FF0E0EE0FFF1FE45EFE4FEB
:1006F000A591B4918FB7F894EC91111108C0D095E1
:10070000DE23DC938FBFDF91CF911F910895DE2B05
:10071000F8CFCF93DF9390E0FC01E95AFE4F24918C
:10072000885C9E4FFC0184918823C9F090E0880F7B
:10073000991FFC01E25FFE4FA591B491FC01E45EBC
:10074000FE4FC591D49161110DC09FB7F8948C9163
:10075000209582238C938881282328839FBFDF9153
:10076000CF910895623051F49FB7F8943C91822F55
:10077000809583238C93E8812E2BEFCF8FB7F8944D
:10078000EC912E2B2C938FBFEACF3FB7F89480913A
:100790008F0290919002A0919102B091920226B5A1
:1007A000A89B05C02F3F19F00196A11DB11D3FBFA9
:1007B000BA2FA92F982F8827BC01CD01620F711D78
:1007C000811D911D42E0660F771F881F991F4A9572
:1007D000D1F708958F929F92AF92BF92CF92DF92FE
:1007E000EF92FF924B015C010E94C5036B017C01FB
:1007F0000E94C5036C197D098E099F09683E7340EC
:1008000081059105A8F321E0821A9108A108B10899
:1008100088EEC80E83E0D81EE11CF11C81149104FF
:10082000A104B10429F7FF90EF90DF90CF90BF9023
:10083000AF909F908F9008958F929F92AF92BF92AA
:10084000CF92DF92EF92FF920F931F93CF93DF939C
:100850006C017B018A0180914301882309F45CC00B
:100860008091A802882309F457C08091990280FFE3
:1008700005C08091E00082608093E000E801B12C27
:100880008AEFA82E93E0892E2AE3922E209711F466
:10089000BB20D9F10E947B0181110AC0AA94AA2031
:1008A000D9F161E070E080E090E00E94EA03EECFD1
:1008B0008C171D0611F00CF08C2F9FB7F8948092C6
:1008C000E9002091E80025FD02C09FBFDFCF282F5F
:1008D00030E0C21BD30BF701815020F041914093CF
:1008E000F100FACFE20EF31EBB2021F09092E80057
:1008F000B12CEBCF8091E80085FDE7CF9092E80026
:10090000BB24B394209709F3F3CF5D9884E68093DA
:100910009802101611063CF081E090E0F6019383F6
:10092000828310E000E0C801DF91CF911F910F9109
:10093000FF90EF90DF90CF90BF90AF909F908F90FF
:100940000895FF920F931F93CF93DF93C2E0D1E0FE
:1009500010E000E0FF24F394809144019091450160
:10096000801791074CF062E089810E948903F88228
:100970000F5F1F4F2396F0CFDF91CF911F910F9103
:10098000FF9008950895CF93DF93EC011A821B82A4
:100990001C821D828E8D8823A1F0EC89FD89309701
:1009A00011F0CE010995EE89FF89309711F0CE0143
:1009B0000995E88DF98D309721F0CE01DF91CF9127
:1009C0000994DF91CF9108950895CF92DF92EF922D
:1009D000FF920F931F93CF93DF938C01F801C28195
:1009E000D38190818181209709F45BC0F8018081D7
:1009F0009181009711F00E94E5040E94C5036B01EC
:100A00007C014E815F81688579858A819B81AC817B
:100A1000BD81840F951FA61FB71FC816D906EA0609
:100A2000FB0690F04E815F81688579858417950774
:100A3000A607B707D8F44E815F8168857985C4160B
:100A4000D506E606F70690F04E815F8168857985C8
:100A5000C416D506E606F706A8F44E815F816885C0
:100A6000798584179507A607B70760F0CA86DB86E5
:100A7000EC86FD86EE85FF85CE010995CE82DF826C
:100A8000E886F9860888D989C02D209709F0AECF6D
:100A9000DF91CF911F910F91FF90EF90DF90CF905A
:100AA0000895092F182F0115110509F097CFF0CFE0
:100AB000DC011296ED91FC9113973097C1F0E61787
:100AC000F70741F42089318913963C932E931297AE
:100AD0000895FC0180899189009749F0861797074E
:100AE000C1F7DB0150968D919C91918B808B08957D
:100AF0000F931F93CF93DF93EC018E8D811102C072
:100B000081E08E8F1A821B821C821D821B8E1A8EA0
:100B10000A891B89BE01C8010E945805D801129696
:100B2000ED91FC9113973097D1F41396DC93CE930B
:100B300012970E94C5030A811B812C813D81601B95
:100B4000710B820B930B6E837F8388879987198A39
:100B5000188ADF91CF911F910F910895FC01808930
:100B600091890097D9F7D18BC08BE3CFDC015A96DE
:100B7000ED91FC91309709F0099489EA92E00E9486
:100B8000CC02892BC9F089EA92E00E948A02803364
:100B900021F488E193E00C94780580918902882300
:100BA00059F080915503811107C08091880281110D
:100BB00003C087E393E0EFCF0895FC01778B668B4A
:100BC0000C947805FC01758B648B0C947805FC0102
:100BD000168EBC01828993890C945805FC01019002
:100BE0000020E9F73197AF01481B590BBC0189EA96
:100BF00092E00C941C0481E791E00C94EE050F93B5
:100C00001F93CF93DF938C01D0E0C0E0F801EC0F8D
:100C1000FD1F6491662341F089EA92E00E9465021B
:100C2000892B11F02196F2CF0E94FB058C0F9D1F9E
:100C3000DF91CF911F910F910895CF93DF93FC0126
:100C4000448155816081718189EA92E00E941C048F
:100C5000EC010E94FB058C0F9D1FDF91CF91089541
:100C6000CF93DF930E94EE05EC010E94FB058C0FF1
:100C70009D1FDF91CF9108950F931F93CF93DF9323
:100C8000EC018A8D9B8D892BD1F561E08DE00E946E
:100C900089038091880281112DC06091000181E05B
:100CA00068278DE00E945B03009100011091010113
:100CB0000130110521F484E791E00E94300681E0C3
:100CC00090E0012B11F090E080E09093010180937F
:100CD000000180EA96E8A1E0B0E08A839B83AC83C0
:100CE000BD838FE796E09B8F8A8FDF91CF911F9115
:100CF0000F91089588EB90E00E94FF05D5CF1B8EE1
:100D00001A8EC7CFBF92CF92DF92EF92FF920F93CE
:100D10001F93CF93DF93EC01EA8DFB8D309709F0A1
:100D2000099483E991E00E94300681E08093870274
:100D300086E593E00E94E7050E94A10480EA96E818
:100D4000A1E0B0E08A839B83AC83BD8384EB96E013
:100D50009B8F8A8FDF91CF911F910F91FF90EF9022
:100D6000DF90CF90BF9008951B8E1A8E109289024B
:100D700080918902811153C01A821B821C821D82BC
:100D800083EC96E0E5CF1B8E1A8E109286021092AD
:100D9000850210928402EE24E394C0908402D090E5
:100DA000850280914401909145018C159D054CF17F
:100DB000B0908702FF24F394B110F12C8601000F4C
:100DC000111F0C0D1D1D0E5F1E4FF80180818F1528
:100DD00051F081810E943203E0928902B81619060F
:100DE00051F4E0928602FFEFCF1ADF0AD09285021B
:100DF000C0928402D2CFF8161906A9F7F801F08242
:100E0000F2CF809186028111109289028091930322
:100E10008111AECF85E793E00E947805A9CF83EEDC
:100E200090E00E94FF0587E393E00E94E70581E0E0
:100E30008093880286E593E0DF91CF911F910F9117
:100E4000FF90EF90DF90CF90BF900C9478050F93B8
:100E50001F93CF93DF93EC0188819981009759F01C
:100E60002A813B812617370730F081E0DF91CF914F
:100E70001F910F9108958B016F5F7F4F0E94751036
:100E8000009759F0998388831B830A832C813D81C5
:100E9000232B59F7FC011082E8CF80E0E7CFCF93F6
:100EA000DF93EC0188819981009711F00E94EC0F8B
:100EB000198218821D821C821B821A82DF91CF91B7
:100EC0000895EF92FF920F931F93CF93DF93EC015E
:100ED000FB01E080F180E114F10411F1048115813E
:100EE00001151105A9F08C819D81080F191FB8010A
:100EF000CE010E942707882399F0288139818C81AF
:100F00009D81B701820F931F0E943B111D830C83AB
:100F1000CE01DF91CF911F910F91FF90EF90089537
:100F2000CE010E944F07F4CFEF92FF920F931F93D1
:100F3000CF93DF93EC017B018A01BA010E9427075E
:100F400081110BC0CE010E944F07CE01DF91CF91DE
:100F50001F910F91FF90EF9008951D830C83B701AF
:100F6000888199810E943B11F0CFFC01118210828F
:100F70001382128215821482FB0101900020E9F78E
:100F80003197AF01461B570B0C949407FC018081ED
:100F90009181009711F00C94EC0F08950C94EC0FD4
:100FA0000C94EC0FCF92DF92EF92FF920F931F936E
:100FB000CF93DF93CDB7DEB7A7970FB6F894DEBF18
:100FC0000FBECDBFFC01EE0FFF1FE80FF91FEE5F54
:100FD000FE4F8181928191114EC01BA21AA21DA2C7
:100FE0001CA21FA21EA24AE08E010F5F1F4FB80174
:100FF0008251990B0E94BC0EF80101900020E9F784
:101000003197AF01401B510BB801CE0182960E946F
:1010100094071A8219821C821B821E821D8241E063
:1010200050E067EA71E0C8010E949407BE016E5D5E
:101030007F4FC8010E946107FC0144815581608196
:10104000718189EA92E00E941C04C8010E94C607CF
:10105000CE0182960E94C607A7960FB6F894DEBF0F
:101060000FBECDBFDF91CF911F910F91FF90EF90F9
:10107000DF90CF900895282F30E050E040E019A293
:101080008E010F5D1F4F8AE0C82ED12CE12CF12C70
:10109000CA01B901A70196010E94280F605DF801FD
:1010A00062938F01211531054105510589F730976C
:1010B00099F2CF010E94EE05CFCFEF92FF920F93EE
:1010C0001F93CF93DF93EC01EA8DFB8D309709F0EE
:1010D000099410928302109282028CEA90E00E949E
:1010E000FF051092830210928202009182021091F9
:1010F00083028091440190914501801791070CF47F
:101100003EC0C801880F991FFC01E00FF11FEE5F80
:10111000FE4FF080E090870221E0E11020E0F2161F
:1011200021F1800F911FFC01EE5FFE4F81810E9433
:101130003203FE101AC086EB91E00E94EE0589EAA8
:1011400091E0FF2011F08FEA91E00E94EE05C801C6
:101150000E94D2070E94FB051A821B821C821D82FC
:1011600083EB98E016C01B8E1A8E809182029091BC
:10117000830201969093830280938202B6CF80E42B
:1011800092E4AFE0B0E08A839B83AC83BD8382EDC1
:1011900098E09B8F8A8FDF91CF911F910F91FF90E5
:1011A000EF9008951B8E1A8E85E793E0DF91CF9123
:1011B0001F910F91FF90EF900C94E7059F92AF92D3
:1011C000BF92CF92DF92EF92FF920F931F93CF9334
:1011D000DF93EC01EA8DFB8D42E0E42E41E0F42E3A
:1011E00010E000E0309709F009948091440190915B
:1011F000450180179107BCF0F701D18000FD0AC0BE
:1012000062E08D2D0E9489030F5F1F4FF3E0EF0E08
:10121000F11CEBCF61E08D2D0E94890360E08D2DE4
:101220000E945B03F1CF80E197E2A0E0B0E08A8307
:101230009B83AC83BD838BE299E09B8F8A8FDF9188
:10124000CF911F910F91FF90EF90DF90CF90BF90C3
:10125000AF909F9008951B8E1A8E22E0E22E21E01F
:10126000F22E10E000E03BEBC32E31E0D32EBB2486
:10127000B3948091440190914501801791075CF1EE
:1012800084ECC81681E0D80649F0E8ECCE16E1E01F
:10129000DE0621F0F70181818D30B9F000FD15C027
:1012A000F70181810E943203892B79F482ED91E06C
:1012B0000E94EE05C8010E94D2078EED91E00E94C7
:1012C000EE050E94FB05B09289020F5F1F4FF3E00D
:1012D000EF0EF11CCECF80E197E2A0E0B0E08A8370
:1012E0009B83AC83BD8386E799E0A7CF1B8E1A8EC4
:1012F00092E0E92E91E0F92E10E000E080914401A7
:101300009091450180179107BCF0F701D18000FF53
:101310000AC062E08D2D0E9489030F5F1F4FF3E02A
:10132000EF0EF11CEBCF61E08D2D0E94890360E090
:101330008D2D0E945B03F1CF80E197E2A0E0B0E049
:101340008A839B83AC83BD8387EA99E076CF1B8E2B
:101350001A8E02E011E07801D0E0C0E08BEBA82EFD
:1013600081E0B82E99249394C0904401D090450117
:10137000CC16DD0654F184ECA81681E0B80649F0DD
:10138000E8ECAE16E1E0BE0621F0F70181818D3078
:10139000B9F0C0FF15C0F70181810E943203892B8B
:1013A00079F482ED91E00E94EE05CE010E94D20711
:1013B0008EED91E00E94EE050E94FB05909289025D
:1013C0002196F3E0EF0EF11CCFCFD0E0C0E0FF2478
:1013D000F394CC16DD065CF060E0F80181810E9498
:1013E0008903F801F08221960D5F1F4FF2CF8091A3
:1013F0008902811117C086EE91E00E94300686E5D1
:1014000093E00E94780588E193E0DF91CF911F91EE
:101410000F91FF90EF90DF90CF90BF90AF909F9093
:101420000C94E70586E192E00E943006ECCF1F9213
:101430000F920FB60F9211248F939F938091E1002A
:101440009091E100937F9093E10083FF0FC0109291
:10145000E90091E09093EB001092EC0092E39093FE
:10146000ED001092A80298E09093F00082FF22C055
:1014700093E09093E9009091F200992319F09AE398
:101480009093E80090919802992341F090919802EE
:10149000915090939802911101C05D9A9091A7028A
:1014A000992341F09091A70291509093A702911136
:1014B00001C0289A84FF18C08091E2008E7E81606E
:1014C0008093E2008091E1008F7E8093E100809123
:1014D00099028E7E8061809399029F918F910F90E7
:1014E0000FBE0F901F90189580FFF7CF8091E200FC
:1014F0008E7E80618093E2008091E1008E7E8093F9
:10150000E100809199028E7E8160E5CF1F920F925B
:101510000FB60F921124CF92DF92EF92FF920F93AA
:101520001F932F933F934F935F936F937F938F936B
:101530009F93AF93BF93EF93FF93CF93DF93CDB779
:10154000DEB76C97DEBFCDBF1092E9008091E80056
:1015500083FF25C068E0CE0145960E94580282EFC5
:101560008093E8008D8987FF39C09091E80090FF53
:10157000FCCF982F907609F034C19E894F89588D01
:101580002F89F88C911131C0803861F580919A02D1
:101590008093F1001092F1008EEF8093E8006C963A
:1015A0000FB6F894DEBF0FBECDBFDF91CF91FF9194
:1015B000EF91BF91AF919F918F917F916F915F91CB
:1015C0004F913F912F911F910F91FF90EF90DF90DE
:1015D000CF900F900FBE0F901F9018959EEF909395
:1015E000E800C7CF1092F100D5CF913059F48111A6
:1015F000D3CF4130510581F680919A028D7F80933F
:101600009A02CACF933049F48111C6CF41305105B7
:1016100019F680919A028260F2CF953041F4809160
:10162000E80080FFFCCF20682093E300B5CF963020
:1016300009F0A9C00B8D1C8D22E01092E9001092D8
:10164000960210929502F2122EC0109294021092FD
:1016500093020E9427021F8299E09983FA8291E007
:101660009E8390EA98879AEF99872091950230910E
:101670009602275F3F4F3C832B838D831092E900B6
:101680001092960210929502109394020093930286
:1016900049E050E0BE016F5F7F4F80E00E94010291
:1016A0000E94270279CF10939402009393020E9424
:1016B0008C01DC0112960D911C910115110509F4A4
:1016C00051C1D801ED91FC910480F581E02DBE015E
:1016D0006B5E7F4FC8010995009709F03EC1F80184
:1016E00000851185EACFF3E0FF120EC08F898823B1
:1016F00009F440C0823061F440E860E189EF91E094
:101700000E94CE01811148CF81E28093EB0047CF48
:10171000813029F440E86BE08DEE91E0F1CF833029
:1017200099F70E948C01DC011296ED90FC908E01DD
:101730000F5F1F4F6801E114F10479F0D701ED91BB
:10174000FC910680F781E02DB801C7010995080FCB
:10175000111DF701E084F184EECFD8011C92F6014F
:1017600001900020E9F73197BF016C197D0940E035
:10177000C601C6CF67ED71E0FB01449150E080E8FF
:101780000E94010209CF973009F4BECF983021F4AE
:1017900081E08093F10000CF993009F0FDCE837095
:1017A00009F0B2CFE9E5F1E081E031E096E3219183
:1017B000222371F08093E9003093EB00DF01119751
:1017C0002C912093EC009093ED008F5F873079F798
:1017D0008EE78093EA001092EA008F898093A80236
:1017E000DBCE8B8D9C8D1092E900109296021092A8
:1017F00095029093940280939302898D811192C0F7
:101800008E899D89913A49F4813209F07DCF47E074
:1018100050E06CE371E080E0B3CF913209F074CF17
:10182000833269F48F89988DB0E0A0E0809338010D
:1018300090933901A0933A01B0933B01ADCE803231
:1018400069F48091E80082FFFCCF67E08CE391E0CF
:101850000E9458028BEF8093E8009ECE823209F0FE
:101860009BCE8F8980934301EEEFFFE785919491A2
:101870008B3F9C4D51F1E0E0F8E080913C0190916C
:101880003D01A0913E01B0913F01803B9440A105F4
:10189000B105F1F48091430180FD1AC0EE3F8AE06A
:1018A000F80789F587E797E7918380838091600047
:1018B0008093970288E19BE00FB6F894A8958093F7
:1018C00060000FBE9093600067CEEEEFFAE0D5CFD8
:1018D000808191818737974709F05ECEA8958091E6
:1018E000600088618093600080919702809360001F
:1018F000EE3F2AE0F20789F08091FE0A9091FF0AFC
:101900009183808349CE808191818737980751F2F6
:101910009093FF0A8093FE0AC5CF1092FF0A10929F
:10192000FE0A3ACE0E948C01DC0112960D911C91A8
:101930000115110509F4E8CED801ED91FC91019053
:10194000F081E02DBE016B5E7F4FC80109958111CA
:1019500023CEF80100851185EBCF181619060CF47B
:101960001BCED2CEF1E0FF12BECE6BED71E004CF04
:101970001F920F920FB60F9211242F933F938F93C4
:101980009F93AF93BF9380918B0290918C02A09113
:101990008D02B0918E0230918A0223E0230F2D3701
:1019A00058F50196A11DB11D20938A0280938B02E8
:1019B00090938C02A0938D02B0938E0280918F023F
:1019C00090919002A0919102B09192020196A11D76
:1019D000B11D80938F0290939002A0939102B093D7
:1019E0009202BF91AF919F918F913F912F910F9054
:1019F0000FBE0F901F90189526E8230F0296A11D89
:101A0000B11DD2CFFC01128213821482158283ECA5
:101A100094E0978786871682178210861186118A2E
:101A2000108A80E591E09183808384E993E0938B31
:101A3000828B718F608FCF010C947805E9EAF2E018
:101A40001382128288EE93E0A0E0B0E08483958355
:101A5000A683B78383E691E0918380838FEF9FEF26
:101A6000958784876DE578E085E793E00E94020D15
:101A70006CE376E086E593E00E94020D62E876E092
:101A800087E393E00E94020D6EED78E088E193E039
:101A90000E94020D66EB75E089EF92E00E94020D54
:101AA000ACE9B3E011961C921E92E8E9F3E0B18331
:101AB000A083F0939503E09394030895CF93DF936D
:101AC000CDB7DEB72F970FB6F894DEBF0FBECDBFF0
:101AD000789484B5826084BD84B5816084BD85B509
:101AE000826085BD85B5816085BD80916E00816015
:101AF00080936E00109281008091810082608093BB
:101B000081008091810081608093810080918000BC
:101B10008160809380008091910082608093910029
:101B2000809191008160809391008091900081600C
:101B3000809390008091C10084608093C100809167
:101B4000C10082608093C1008091C1008160809358
:101B5000C1008091C30081608093C3008091C00068
:101B600082608093C0008091C20081608093C20037
:101B700080917A00846080937A0080917A008260FC
:101B800080937A0080917A00816080937A008091BE
:101B90007A00806880937A001092A80210929A02CC
:101BA000109299028091D70081608093D70080EADB
:101BB0008093D80089B5806189BD89B5826089BD6F
:101BC00009B400FEFDCF61E070E080E090E00E948B
:101BD000EA038091D8008F7C80618093D800809147
:101BE000E000807F8093E0008091E1008E7E809312
:101BF000E1008DE08093E200559A209A8FEF9FEFED
:101C00009093B6028093B5020E94A10481E190E016
:101C10009093450180934401109143016AE070E084
:101C200080E090E00E94EA03111112C00BEF11E175
:101C3000C8010197F1F7F09043016AE070E080E09D
:101C400090E00E94EA03F11003C0C8010197F1F788
:101C50008BEB91E08854924031F487E190E09093CF
:101C600045018093440187E393E00E94E70585E7FF
:101C700093E00E94E70586E593E00E94E7051B8656
:101C80001A861D861C861F861E864AE08E010F5FFF
:101C90001F4FB80182E190E00E94C70EF801019049
:101CA0000020E9F73197AF01401B510BB801CE017D
:101CB0000A960E9494076EE472E0C8010E94B5077C
:101CC000BE01665F7F4FC8010E9461077C01FC0175
:101CD000C480D580FFE0CF0ED11CB6010E9427073B
:101CE000882309F445C0F7012081318184819581E1
:101CF00069E572E0820F931F0E943B11F701D582C4
:101D0000C482C7010E941D06C8010E94C607CE01F9
:101D10000A960E94C60789E292E00E94FF056BEBDB
:101D200071E0C8010E94B50769E672E0CE010A962B
:101D30000E94B507B801CE010A960E9461070E9471
:101D40001D06CE010A960E94C607C8010E94C6075A
:101D50008AE092E00E94FF0500E010E084E993E051
:101D60000E94E50401151105C9F30E940000F6CF99
:101D7000C7010E944F07C5CFBB274A3031F49923D2
:101D800022F4BDE2909581959F4F0C94C80EBB271D
:101D9000FB015527AA27880F991FAA1FA41710F027
:101DA000A41B83955051B9F7A05DAA3308F0A95D33
:101DB000A193009779F7B111B1931192CB010C94D3
:101DC000E10EDC01FC01672F71917723E1F7329777
:101DD00004C07C916D9370836291AE17BF07C8F306
:101DE00008952F923F924F925F926F927F928F92BF
:101DF0009F92AF92BF92CF92DF92EF92FF920F939A
:101E00001F93CF93DF93CDB7DEB7CA1BDB0B0FB6A3
:101E1000F894DEBF0FBECDBF09942A883988488860
:101E20005F846E847D848C849B84AA84B984C884F6
:101E3000DF80EE80FD800C811B81AA81B981CE0FED
:101E4000D11D0FB6F894DEBF0FBECDBFED010895D2
:101E5000A1E21A2EAA1BBB1BFD010DC0AA1FBB1FAE
:101E6000EE1FFF1FA217B307E407F50720F0A21B20
:101E7000B30BE40BF50B661F771F881F991F1A948D
:101E800069F760957095809590959B01AC01BD01B7
:101E9000CF010895EE0FFF1F0590F491E02D0994F6
:101EA0000F931F93CF93DF938230910510F482E05C
:101EB00090E0E091A203F091A30330E020E0B0E0D5
:101EC000A0E0309799F42115310509F44AC0281B88
:101ED000390B24303105D8F58A819B816115710554
:101EE00089F1FB0193838283FE0111C040815181FE
:101EF0000281138148175907E0F04817590799F4F0
:101F0000109761F012960C93129713961C933296C9
:101F1000CF01DF91CF911F910F9108950093A203FC
:101F20001093A303F4CF2115310551F04217530745
:101F300038F0A901DB019A01BD01DF01F801C1CF31
:101F4000EF01F9CF9093A3038093A203CDCFFE01BD
:101F5000E20FF31F81939193225031093983288333
:101F6000D7CF2091A0033091A103232B41F42091DE
:101F70004801309149013093A1032093A00320919F
:101F80004601309147012115310541F42DB73EB787
:101F900040914A0150914B01241B350BE091A00365
:101FA000F091A103E217F307A0F42E1B3F0B2817B3
:101FB000390778F0AC014E5F5F4F2417350748F0C2
:101FC0004E0F5F1F5093A1034093A0038193919301
:101FD0009FCFF0E0E0E09CCFCF93DF930097E9F054
:101FE000FC01329713821282A091A203B091A30345
:101FF000ED0130E020E01097A1F420813181820FC3
:10200000931F2091A0033091A1032817390709F0ED
:1020100061C0F093A103E093A003DF91CF910895F5
:10202000EA01CE17DF07E8F54A815B819E01411581
:102030005105B1F7E901FB83EA8349915991C40F36
:10204000D51FEC17FD0761F4808191810296840F02
:10205000951FE90199838883828193819B838A8379
:10206000F0E0E0E012968D919C9113970097B9F5FE
:102070002D913C911197CD010296820F931F2091D3
:10208000A0033091A1032817390739F6309751F58D
:102090001092A3031092A203B093A103A093A003F4
:1020A000BCCFD383C28340815181840F951FC81751
:1020B000D90761F44E5F5F4F88819981480F591F9E
:1020C000518340838A819B819383828321153105CB
:1020D00009F0B0CFF093A303E093A2039ECFFD01DC
:1020E000DC01C0CF13821282D7CFB0E0A0E0EBE7D3
:1020F000F0E10C94F30E8C01009751F4CB010E9497
:10210000500F8C01C801CDB7DEB7E0E10C940F0F82
:10211000FC01E60FF71F9C0122503109E217F3077B
:1021200008F49DC0D901CD91DC911197C617D7074E
:1021300098F0C530D10530F3CE0104978617970784
:1021400008F3C61BD70B2297C193D1936D937C9351
:10215000CF010E94EC0FD6CF5B01AC1ABD0A4C0137
:102160008C0E9D1EA091A203B091A303512C412C73
:10217000F12CE12C109731F58091A0039091A103EF
:102180008815990509F05CC04616570608F058C036
:102190008091460190914701009741F48DB79EB719
:1021A00040914A0150914B01841B950BE817F907A8
:1021B00008F055C0F093A103E093A003F9017183E7
:1021C0006083A0CF8D919C91119712966C9012977D
:1021D00013967C901397A815B90559F56C0142E048
:1021E000C40ED11CCA14DB0420F1AC014A195B09EE
:1021F000DA011296159780F06282738251834083D0
:10220000D9016D937C93E114F10471F0D701139619
:10221000FC93EE93129776CF22968C0F9D1FF901B7
:1022200091838083F301EFCFF093A303E093A203A4
:1022300069CF4816590608F42C017D01D3019ACFC5
:10224000CB010E94500F7C01009749F0AE01B8010C
:102250000E943211C8010E94EC0F870153CF10E099
:1022600000E050CFFB01DC0102C001900D92415013
:102270005040D8F70895FB01DC0101900D92002039
:08228000E1F70895F894FFCF87
:10228800010001020102030103040104050105061E
:1022980001060701070801080901090A010A0B01DB
:1022A8000B0C010C0D010D12000E13000F14001081
:1022B8001500111600121700FFFFFFFF00E10000D4
:1022C8000000000012000000A403800000000000CD
:1022D800E404D007E205DD0500C1808100000000AC
:1022E80000000065021C0486027B02CC028A02A858
:1022F800020D0A004873686F702074657374732048
:1023080041726475696E6F206C616E2033204F4B8B
:102318002121005465737420492F4F204C6F77207A
:10232800626567696E3A0041004C4F573A20004891
:102338004947483A200050696E20004C656F6E612D
:1023480072646F00556E6F004D65676120323536D7
:1023580030004D61792062652070696E200020652B
:1023680072726F722000436F6E67726174756C6170
:1023780074696F6E2C20566965746475696E6F2078
:10238800697320776F726B696E6720766572792042
:10239800676F6F642100536F6D652070696E2068E8
:1023A80061732070726F706C656D20706C656173FD
:1023B8006520636865636B20686172647761726524
:1023C80020616761696E21004D6963726F0054680E
:1023D8006572652061726520002070696E206E65E7
:1023E800656420636865636B0056657273696F6E18
:1023F800206669726D5761726520746573743A203E
:022408000000D2
:00000001FF
