:1000000016C025C024C023C049C021C020C01FC0C5
:100010001EC01DC01CC01BC01AC019C018C00102E0
:1000200004081020010101010101003800371124EA
:100030001FBECFE5D2E0DEBFCDBF20E0A0E6B0E03E
:1000400001C01D92A936B207E1F715D03BC1D8CF48
:1000500061E081E0CDC061E081E004D168EE73E051
:1000600080E090E088D060E081E0FCD068EE73E052
:1000700080E090E080C0A3D0EBDFEDDFFECF83B760
:10008000887F83BF8AB58C7F81608ABD83B7877F75
:1000900083BF83B7887F836083BF089578941F925E
:1000A0000F920FB60F9211242F933F938F939F932C
:1000B000AF93BF938091610090916200A091630023
:1000C000B0916400309160002CE7230F2D3728F0A9
:1000D0002FEF230F0196A11DB11D20936000809387
:1000E000610090936200A0936300B09364008091DC
:1000F000650090916600A0916700B091680001963C
:10010000A11DB11D8093650090936600A0936700C8
:10011000B0936800BF91AF919F918F913F912F91C4
:100120000F900FBE0F901F9018953FB7F8948091D5
:10013000650090916600A0916700B09168002FB5AE
:1001400008B602FE05C02F3F19F00196A11DB11D92
:100150003FBFBA2FA92F982F8827BC01CD01620F6E
:10016000711D811D911D42E0660F771F881F991F29
:100170004A95D1F70895CF92DF92EF92FF92CF93F5
:10018000DF936B017C01D1DFEB01C114D104E104E9
:10019000F10439F4DF91CF91FF90EF90DF90CF9091
:1001A0000895C3DF6C1B7D0B683E734070F381E0E4
:1001B000C81AD108E108F108C851DC4FE6CF78949D
:1001C00080B7806880BF80B7806480BF8CB5806452
:1001D0008CBD8FEF8DBD80B7807F876080BF89B772
:1001E000846089BF4CDF86B1876086B9379A0895ED
:1001F000CF93DF9390E0FC01E25EFF4F24918C5D92
:100200009F4FFC018491882329F190E0FC01E45D7B
:10021000FF4FE491CE2FD0E0865D9F4FFC0184918B
:10022000611109C08FB7F8949881E22FE095E92316
:10023000E8838FBF0FC0623081F4A82FB0E09FB772
:10024000F8943881822F809583238883EC91E22B68
:10025000EC939FBFDF91CF9108958FB7F894E88119
:10026000E22BE6CF282F30E0F901E25EFF4F9491B8
:10027000F901EC5DFF4FE491EE23A1F0811113C071
:100280008AB58F738ABDF0E0E65DFF4FA491B0E0C0
:100290008FB7611113C0F8942C91E92FE095E223F8
:1002A000EC938FBF0895813019F48AB58F7CEACF23
:1002B000843049F78CB58F7C8CBDE5CFF894EC91F8
:0802C000E92BEECFF894FFCF0B
:00000001FF
