:100000000C9462000C948A000C948A000C948A0070
:100010000C948A000C948A000C948A000C948A0038
:100020000C948A000C948A000C948A000C948A0028
:100030000C948A000C948A000C948A000C948A0018
:100040000C9477030C948A000C94E7030C94C1037E
:100050000C948A000C948A000C948A000C948A00F8
:100060000C948A000C948A000000000023002600F3
:10007000290000000000240027002A0000000000E2
:10008000250028002B0004040404040404040202D4
:100090000202020203030303030301020408102007
:1000A0004080010204081020010204081020000012
:1000B0000008000201000003040700000000000027
:1000C0000000A50511241FBECFEFD8E0DEBFCDBFD5
:1000D00012E0A0E0B1E0E8EFFBE002C005900D9275
:1000E000A031B107D9F722E0A0E1B2E001C01D9232
:1000F000AC3BB207E1F710E0C2E6D0E004C02197C4
:10010000FE010E94F405C136D107C9F70E94190407
:100110000C94FA050C940000833081F028F48130AF
:1001200099F08230A9F008958730A9F08830C9F09D
:100130008430B1F4809180008F7D03C08091800075
:100140008F7780938000089584B58F7784BD08955C
:1001500084B58F7DFBCF8091B0008F778093B00006
:1001600008958091B0008F7DF9CF1F93CF93DF93D7
:10017000282F30E0F901E255FF4F8491F901E6564E
:10018000FF4FD491F901EA57FF4FC491CC23A9F056
:10019000162F81110E948C00EC2FF0E0EE0FFF1F54
:1001A000E458FF4FA591B4918FB7F894EC911111D9
:1001B00008C0D095DE23DC938FBFDF91CF911F91D4
:1001C0000895DE2BF8CFCF93DF9390E0FC01E65645
:1001D000FF4F24918A579F4FFC0184918823D1F0CF
:1001E00090E0880F991FFC01EE58FF4FA591B49144
:1001F000FC01E458FF4FC591D491623071F49FB770
:10020000F8943C91822F809583238C93E8812E2B48
:1002100028839FBFDF91CF9108958FB7F894EC9119
:100220002E2B2C938FBFF6CF3FB7F89480911B02F3
:1002300090911C02A0911D02B0911E0226B5A89BB0
:1002400005C02F3F19F00196A11DB11D3FBFBA2F68
:10025000A92F982F8827BC01CD01620F711D811D28
:10026000911D42E0660F771F881F991F4A95D1F7AD
:1002700008958F929F92AF92BF92CF92DF92EF92AA
:10028000FF924B015C010E9414016B017C010E94F2
:1002900014016C197D098E099F09683E7340810520
:1002A0009105A8F321E0821A9108A108B10888EE0F
:1002B000C80E83E0D81EE11CF11C81149104A10436
:1002C000B10429F7FF90EF90DF90CF90BF90AF90EF
:1002D0009F908F900895AF92BF92CF92DF92EF924E
:1002E000FF920F931F93CF93DF936C017B018B01E0
:1002F000040F151FEB015E01AE18BF08C017D10730
:1003000059F06991D601ED91FC910190F081E02DB9
:10031000C6010995892B79F7C501DF91CF911F910E
:100320000F91FF90EF90DF90CF90BF90AF90089526
:10033000FC01538D448D252F30E0842F90E0821BEB
:10034000930B541710F0CF96089501970895FC0170
:10035000918D828D981761F0A28DAE0FBF2FB11DC8
:100360005D968C91928D9F5F9F73928F90E0089520
:100370008FEF9FEF0895FC01918D828D981731F0DA
:10038000828DE80FF11D858D90E008958FEF9FEF2E
:100390000895FC01918D228D892F90E0805C9F4F04
:1003A000821B91098F73992708958FE192E00E9433
:1003B000C90121E0892B09F420E0822F089580E013
:1003C00090E0892B29F00E94D50181110C94000046
:1003D0000895FC01A48DA80FB92FB11DA35ABF4FDA
:1003E0002C91848D90E001968F739927848FA68934
:1003F000B7892C93A089B1898C91837080648C9388
:10040000938D848D981306C00288F389E02D808136
:100410008F7D80830895EF92FF920F931F93CF9368
:10042000DF93EC0181E0888F9B8D8C8D98131AC02F
:10043000E889F989808185FF15C09FB7F894EE8916
:10044000FF896083E889F989808183708064808373
:100450009FBF81E090E0DF91CF911F910F91FF90BE
:10046000EF900895F62E0B8D10E00F5F1F4F0F7366
:100470001127E02E8C8D8E110CC00FB607FCFACF21
:10048000E889F989808185FFF5CFCE010E94E901D5
:10049000F1CFEB8DEC0FFD2FF11DE35AFF4FF082F2
:1004A0009FB7F8940B8FEA89FB8980818062CFCF58
:1004B000CF93DF93EC01888D8823B9F0AA89BB899B
:1004C000E889F9898C9185FD03C0808186FD0DC086
:1004D0000FB607FCF7CF8C9185FFF2CF808185FFA7
:1004E000EDCFCE010E94E901E9CFDF91CF910895D0
:1004F000AF92BF92DF92EF92FF920F931F93CF9331
:10050000DF93CDB7DEB7C85CD1090FB6F894DEBF74
:100510000FBECDBF8E010F5F1F4F5E0199ECA90E7C
:10052000B11C78018E50D82E6894D6F8D0927C00F9
:1005300080917A00806480937A0080917A0086FDB1
:10054000FCCF8091780090917900D7018D939D9395
:100550007D0165E070E080E090E00E943901EA14DE
:10056000FB0421F798012E5F3F4FF90181E090E0F5
:10057000EE15FF0581F041915191D8016D917C916B
:1005800064177507A9F70196F3CF89012E173F0766
:1005900049F781E003C04E97C4F380E0C853DF4FB2
:1005A0000FB6F894DEBF0FBECDBFDF91CF911F9184
:1005B0000F91FF90EF90DF90BF90AF900895FC01F6
:1005C00001900020E9F73197AF01481B590BBC019E
:1005D0008FE192E00C946B01CF93DF930E94DF02D6
:1005E000EC0184E391E00E94DF028C0F9D1FDF91FC
:1005F000CF9108958F929F92AF92BF92CF92DF9248
:10060000EF92FF920F931F93CF93DF93CDB7DEB797
:10061000A1970FB6F894DEBF0FBECDBF6C01990F46
:10062000EE08FF08F7FE41C06DE28FE192E00E9404
:100630000B028C0122273327A9012C193D094E09F1
:100640005F0919A2CE0181967C019AE0892E912C36
:10065000A12CB12CCA01B901A50194010E94D205B7
:10066000605DF70162937F01211531054105510558
:1006700089F790E080E0309719F0CF010E94DF0207
:10068000800F911FA1960FB6F894DEBF0FBECDBFAD
:10069000DF91CF911F910F91FF90EF90DF90CF905E
:1006A000BF90AF909F908F900895A701960119A2D7
:1006B0008E010F5D1F4F8AE0C82ED12CE12CF12C4A
:1006C000CA01B901A70196010E94D205605DF80137
:1006D00062938F01211531054105510589F790E09D
:1006E00080E0309779F2CF010E94DF02CBCF1F92DA
:1006F0000F920FB60F9211242F933F938F939F93D6
:10070000AF93BF938091170290911802A0911902A4
:10071000B0911A023091160223E0230F2D3758F5BD
:100720000196A11DB11D209316028093170290938C
:100730001802A0931902B0931A0280911B029091A3
:100740001C02A0911D02B0911E020196A11DB11DB7
:1007500080931B0290931C02A0931D02B0931E0273
:10076000BF91AF919F918F913F912F910F900FBEAD
:100770000F901F90189526E8230F0296A11DB11D1A
:10078000D2CF1F920F920FB60F9211242F933F9347
:100790004F935F936F937F938F939F93AF93BF9389
:1007A000EF93FF938FE192E00E94E901FF91EF91B7
:1007B000BF91AF919F918F917F916F915F914F9179
:1007C0003F912F910F900FBE0F901F9018951F9281
:1007D0000F920FB60F9211242F938F939F93EF9345
:1007E000FF93E0912F02F09130028081E091350279
:1007F000F091360282FD1BC09081809138028F5F9C
:100800008F7320913902821741F0E0913802F0E0B5
:10081000E15EFD4F958F80933802FF91EF919F919C
:100820008F912F910F900FBE0F901F901895808180
:10083000F4CFCF93DF93CDB7DEB7A2970FB6F8947E
:10084000DEBF0FBECDBF789484B5826084BD84B511
:10085000816084BD85B5826085BD85B5816085BDBB
:1008600080916E00816080936E0010928100809173
:1008700081008260809381008091810081608093FB
:100880008100809180008160809380008091B10020
:1008900084608093B1008091B00081608093B0004B
:1008A00080917A00846080937A0080917A008260DF
:1008B00080937A0080917A00816080937A008091A1
:1008C0007A00806880937A001092C100E0912F0234
:1008D000F091300282E08083E0912B02F0912C02B3
:1008E0001082E0912D02F0912E0280E1808310921F
:1008F0003702E0913302F091340286E08083E09188
:100900003102F0913202808180618083E091310276
:10091000F0913202808188608083E0913102F09111
:100920003202808180688083E0913102F09132024E
:1009300080818F7D808368EE73E080E090E00E948C
:10094000390187E391E00E94EC0282E691E00E9487
:10095000EC0212E062E0812F0E94E3001F5F1D3075
:10096000C9F71EE062E0812F0E94E3001F5F14318F
:10097000C9F782E2E0E0F1E0DE01119601900D920C
:100980008A95E1F7CE0101966C013E0193E2690E72
:10099000711C560144244394F501019111915F01AA
:1009A000CE0101967C01F7018081F2E0EF0EF11C8F
:1009B00062E00E94E3006E147F04A9F761E0802FDB
:1009C0000E94E30060E0802F0E94B50065E070E0C7
:1009D00080E090E00E943901CE0101964C01F401C3
:1009E000219131914F010217130709F079C0E814E2
:1009F000F904A9F7AE14BF0479F684E190E00E94EF
:100A00007802811105C08EE891E00E94EC02412C31
:100A100085E190E00E947802811105C08EEA91E0A4
:100A20000E94EC02412CF6018081F2E0CF0ED11C35
:100A300062E00E94E300CA14DB04A9F761E08DE0E4
:100A40000E94E30040921502FF24F39400E010E0BE
:100A5000809115028823C1F12FB7F8948091170275
:100A600090911802A0911902B0911A022FBF4091E3
:100A700011025091120260911302709114025C01F4
:100A80006D01A41AB50AC60AD70AB601A5014436F3
:100A9000510561057105C0F0809311029093120217
:100AA000A0931302B0931402809110028F258093BB
:100AB000100261E0882329F08EEC91E00E94EC02A4
:100AC00060E08DE00E94B5000115110509F4C0CF6A
:100AD0000E94D501882309F4BBCF0E940000B8CF43
:100AE0003327F901E255FF4F8491F901E656FF4F94
:100AF0005490F901EA57FF4F3490332079F0811177
:100B00000E948C00E32DF0E0EE0FFF1FE859FF4F2D
:100B1000A591B491EC915E2209F069CF84E092E056
:100B20000E94DF020E30110514F4C80106C087E7E9
:100B300091E00E94DF02C8010E970E94FA0289E745
:100B400091E00E94EC02412C55CFEFE1F2E01382DC
:100B5000128288EE93E0A0E0B0E084839583A683C0
:100B6000B78386E291E09183808385EC90E095875E
:100B7000848784EC90E09787868780EC90E0918B67
:100B8000808B81EC90E0938B828B82EC90E0958B54
:100B9000848B86EC90E0978B868B118E128E138E51
:100BA000148E0895A1E21A2EAA1BBB1BFD010DC0D5
:100BB000AA1FBB1FEE1FFF1FA217B307E407F5070D
:100BC00020F0A21BB30BE40BF50B661F771F881FE9
:100BD000991F1A9469F760957095809590959B017F
:100BE000AC01BD01CF010895EE0FFF1F0590F491F8
:080BF000E02D0994F894FFCFF9
:100BF80002000300040005000600070008000900C1
:100C08000A000B000C000E000F001000110012006B
:100C18001300000000000B026B0198015802C90183
:100C2800A701BB010D0A002D2D2D204873686F7098
:100C3800204750494F2054455354494E4720536B41
:100C48006574636820666F72204E414E4F202D2DCB
:100C58002D00417574686F723A2044616E69656C45
:100C680020486F616E670041002069732053484F28
:100C780052544544206F72204552524F52004D61E4
:100C880079626520416E616C6F672050696E204102
:100C980036206973204E4F5420474F4F44004D6112
:100CA80079626520416E616C6F672050696E2041E2
:100CB80037206973204E4F5420474F4F44002D2D45
:100CC8002D202D2D2D202D2D2D207C7C7C20416C40
:100CD8006C204750494F2050696E206973204F4B54
:100CE800415921207C7C7C202D2D2D202D2D2D203F
:100CF8002D2D2D004D61796265204750494F200008
:00000001FF
