:100000000C9435010C9466010C9466010C94660105
:100010000C9466010C9466010C9466010C946601C4
:100020000C9466010C9466010C9466010C946601B4
:100030000C9466010C9466010C9466010C946601A4
:100040000C9466010C9466010C9466010C94660194
:100050000C9466010C9466010C9466010C943904AE
:100060000C9466010C94AD040C9483040C9466010A
:100070000C9466010C9466010C9466010C94660164
:100080000C9466010C9466010C9466010C94660154
:100090000C9466010C9466010C9466010C94660144
:1000A0000C9466010C9466010C9466010C94660134
:1000B0000C9466010C9466010C9466010C94660124
:1000C0000C9466010C9466010C9466010C94660114
:1000D0000C9466010C9466010C9466010C94660104
:1000E0000C9466010C94A1010C94C1010C94CB01F9
:1000F0000C94E3020C94C6010C948C010C946803DC
:100100000C94B3010C9490010C94BD010C949401D7
:100110000C94C1020C949B010C94C7010C94AF0188
:100120000C9485020C94B9010C94A5010C949801CF
:100130000C9486010C94D5020C94AB010C94990696
:100140000C941B030C94B202000020002300260034
:1001500029002C002F0032000001000003010601DD
:10016000090100002100240027002A002D00300092
:10017000330001010000040107010A010000220010
:10018000250028002B002E00310034000201000061
:10019000050108010B010505050507050808080804
:1001A000020202020A0A080804040404010101010F
:1001B000010101010303030303030303040707070A
:1001C0000C0C0C0C0C0C0C0C0202020206060606AF
:1001D000060606060B0B0B0B0B0B0B0B010210207C
:1001E000200808102040102040800201020108046D
:1001F0000201010204081020408080402010080401
:100200000201800402018040201008040201080459
:10021000020101020408102040800102040810209D
:10022000408000000A0B02090C0D0E0807030401B0
:1002300000000000000000000000000000000000BE
:10024000000000000000000000000000000012118B
:10025000100000000000000000000000000000008E
:100260000000000000000000990611241FBECFEF1F
:10027000D1E2DEBFCDBF00E00CBF12E0A0E0B2E0F3
:10028000E4EEFDE000E00BBF02C007900D92AE3936
:10029000B107D9F723E0AEE9B2E001C01D92AA345C
:1002A000B207E1F711E0C5E3D1E000E006C0219715
:1002B0000109802FFE010E94E806C433D10780E0C7
:1002C0000807A9F70E94E3040C94F0060C940000C0
:1002D0008150823108F05AC0E82FF0E08827EC58AE
:1002E000FE4F8F4F0C94E8069401980186018C0113
:1002F0009001C6019B01A101A501AB01AF01B301B2
:10030000B901BD01C601C101C701CB0180918000C7
:100310008F77809380000895809180008F7DF9CF42
:1003200080918000877FF5CF84B58F7784BD089555
:1003300084B58F7DFBCF8091B0008F778093B00024
:1003400008958091B0008F7DF9CF809190008F77D4
:10035000809390000895809190008F7DF9CF8091D7
:100360009000877FF5CF8091A0008F778093A000C9
:1003700008958091A0008F7DF9CF8091A000877FA4
:10038000F5CF809120018F7780932001089580918F
:1003900020018F7DF9CF80912001877FF5CF1F93BA
:1003A000CF93DF93282F30E0F901EE5DFD4F84916C
:1003B000F901E452FE4FD491F901EA56FE4FC4917F
:1003C000CC23A9F0162F81110E946801EC2FF0E0D8
:1003D000EE0FFF1FE458FE4FA591B4918FB7F8942C
:1003E000EC91111108C0D095DE23DC938FBFDF9113
:1003F000CF911F910895DE2BF8CFCF93DF9390E03C
:10040000FC01E452FE4F24918A569E4FFC018491D8
:100410008823D1F090E0880F991FFC01EE59FE4F20
:10042000A591B491FC01E458FE4FC591D49162307E
:1004300071F49FB7F8943C91822F809583238C931D
:10044000E8812E2B28839FBFDF91CF9108958FB72E
:10045000F894EC912E2B2C938FBFF6CF3FB7F894E6
:100460008091A9029091AA02A091AB02B091AC0236
:1004700026B5A89B05C02F3F19F00196A11DB11DFF
:100480003FBFBA2FA92F982F8827BC01CD01620F3B
:10049000711D811D911D42E0660F771F881F991FF6
:1004A0004A95D1F708958F929F92AF92BF92CF92C3
:1004B000DF92EF92FF924B015C010E942E026B01D2
:1004C0007C010E942E026C197D098E099F09683EED
:1004D000734081059105A8F321E0821A9108A108D3
:1004E000B10888EEC80E83E0D81EE11CF11C81140F
:1004F0009104A104B10429F7FF90EF90DF90CF9011
:10050000BF90AF909F908F900895AF92BF92CF927F
:10051000DF92EF92FF920F931F93CF93DF936C01C3
:100520007B018B01040F151FEB015E01AE18BF08A4
:10053000C017D10759F06991D601ED91FC91019056
:10054000F081E02DC6011995892B79F7C501DF915E
:10055000CF911F910F91FF90EF90DF90CF90BF90C0
:10056000AF900895FC01538D448D252F30E0842FEA
:1005700090E0821B930B541710F0CF9608950197CB
:100580000895FC01918D828D981761F0A28DAE0FB8
:10059000BF2FB11D5D968C91928D9F5F9F73928F3F
:1005A00090E008958FEF9FEF0895FC01918D828D6B
:1005B000981731F0828DE80FF11D858D90E0089538
:1005C0008FEF9FEF0895FC01918D228D892F90E090
:1005D000805C9F4F821B91098F73992708958DEA44
:1005E00092E00E94E30221E0892B09F420E0822FAF
:1005F0000895FC01A48DA80FB92FB11DA35ABF4FB8
:100600002C91848D90E001968F739927848FA68911
:10061000B7892C93A089B1898C91837080648C9365
:10062000938D848D981306C00288F389E02D808114
:100630008F7D80830895EF92FF920F931F93CF9346
:10064000DF93EC0181E0888F9B8D8C8D98131AC00D
:10065000E889F989808185FF15C09FB7F894EE89F4
:10066000FF896083E889F989808183708064808351
:100670009FBF81E090E0DF91CF911F910F91FF909C
:10068000EF900895F62E0B8D10E00F5F1F4F0F7344
:100690001127E02E8C8D8E110CC00FB607FCFACFFF
:1006A000E889F989808185FFF5CFCE010E94F902A2
:1006B000F1CFEB8DEC0FFD2FF11DE35AFF4FF082D0
:1006C0009FB7F8940B8FEA89FB8980818062CFCF36
:1006D000CF93DF93EC01888D8823B9F0AA89BB8979
:1006E000E889F9898C9185FD03C0808186FD0DC064
:1006F0000FB607FCF7CF8C9185FFF2CF808185FF85
:10070000EDCFCE010E94F902E9CFDF91CF9108959C
:1007100080E090E0892B29F00E94EF0281110E9475
:10072000000080E090E0892B49F080E090E0892B88
:1007300029F00E94000081110E94000080E090E0FA
:10074000892B49F080E090E0892B29F00E9400007D
:1007500081110E94000080E090E0892B49F080E048
:1007600090E0892B29F00E94000081110C94000078
:100770000895FC0101900020E9F73197AF01481B73
:10078000590BBC018DEA92E00C9485028F929F92E6
:10079000AF92BF920F931F93CF93DF93CDB7DEB786
:1007A000A1970FB6F894DEBF0FBECDBF19A242309D
:1007B00008F44AE08E010F5D1F4F842E912CB12C5E
:1007C000A12CA50194010E94C606E62FB901CA0119
:1007D000EA30F4F4E05DD801EE938D01232B242B55
:1007E000252B79F790E080E0109719F0CD010E9459
:1007F000B903A1960FB6F894DEBF0FBECDBFDF914F
:10080000CF911F910F91BF90AF909F908F900895BF
:10081000E95CE1CFCF92DF92EF92FF92CF93DF932B
:100820006B017C016DE28DEA92E00E941B03EC01FA
:1008300066277727CB016C197D098E099F094AE04D
:100840000E94C6038C0F9D1FDF91CF91FF90EF9008
:10085000DF90CF900895CF93DF930E94B903EC010E
:1008600082E192E00E94B9038C0F9D1FDF91CF912E
:1008700008951F920F920FB60F9211242F933F935A
:100880008F939F93AF93BF938091A5029091A602FF
:10089000A091A702B091A8023091A40223E0230FF7
:1008A0002D3758F50196A11DB11D2093A402809308
:1008B000A5029093A602A093A702B093A8028091EC
:1008C000A9029091AA02A091AB02B091AC0201964C
:1008D000A11DB11D8093A9029093AA02A093AB021F
:1008E000B093AC02BF91AF919F918F913F912F91A7
:1008F0000F900FBE0F901F90189526E8230F0296B9
:10090000A11DB11DD2CF1F920F920FB60F921124CD
:100910000BB60F922F933F934F935F936F937F93F9
:100920008F939F93AF93BF93EF93FF938DEA92E0E2
:100930000E94F902FF91EF91BF91AF919F918F912A
:100940007F916F915F914F913F912F910F900BBECF
:100950000F900FBE0F901F9018951F920F920FB619
:100960000F9211240BB60F922F938F939F93EF93B7
:10097000FF93E091BD02F091BE028081E091C3023D
:10098000F091C40282FD1DC090818091C6028F5FEC
:100990008F732091C702821741F0E091C602F0E008
:1009A000E355FD4F958F8093C602FF91EF919F9184
:1009B0008F912F910F900BBE0F900FBE0F901F9035
:1009C00018958081F2CFCF93DF931F921F92CDB7FE
:1009D000DEB7789484B5826084BD84B5816084BDBF
:1009E00085B5826085BD85B5816085BD80916E00CD
:1009F000816080936E0010928100809181008260FE
:100A0000809381008091810081608093810080913A
:100A100080008160809380008091B1008460809329
:100A2000B1008091B00081608093B000809191000E
:100A30008260809391008091910081608093910009
:100A4000809190008160809390008091A1008260ED
:100A50008093A1008091A10081608093A10080918A
:100A6000A00081608093A00080912101826080932A
:100A700021018091210181608093210180912001D9
:100A800081608093200180917A00846080937A0055
:100A900080917A00826080937A0080917A008160F0
:100AA00080937A0080917A00806880937A00109217
:100AB000C100E091BD02F091BE0282E08083E0912E
:100AC000B902F091BA021082E091BB02F091BC022F
:100AD00080E180831092C502E091C102F091C202D0
:100AE00086E08083E091BF02F091C0028081806146
:100AF0008083E091BF02F091C00280818860808392
:100B0000E091BF02F091C002808180688083E09113
:100B1000BF02F091C00280818F7D808369E170E027
:100B200080E090E00E94530285E192E00E942B0455
:100B300012E062E0812F0E94FD011F5F1633C9F7AA
:100B400062E0812F0E94FD011F5F1634C9F7CDB608
:100B5000DEB6DA82C9828DB79EB7885891090FB682
:100B6000F8949EBF0FBE8DBFEDB7FEB731967F01E3
:100B70005F0182E090E08193919301968633910525
:100B8000D1F7F701E859FF4F81939193019686348D
:100B90009105D1F781E08093A3022701F8E84F0E79
:100BA000511C4701F401019111914F016701F601B8
:100BB0008081F2E0CF0ED11C62E00E94FD014C1456
:100BC0005D04A9F761E0802F0E94FD0160E0802FA5
:100BD0000E94CF0165E070E080E090E00E94530247
:100BE0003701F301219131913F010217130709F0F9
:100BF0005CC0C614D704A9F7C814D90499F6F50146
:100C00008081F2E0AF0EB11C62E00E94FD01A814E9
:100C1000B904A9F761E08DE00E94FD01C980DA8086
:100C20000FB6F894DEBE0FBECDBE11E08091A302D8
:100C30008823C1F12FB7F8948091A5029091A60264
:100C4000A091A702B091A8022FBF40919F0250919E
:100C5000A0026091A1027091A2026C017D01C41AF0
:100C6000D50AE60AF70AB701A6014436510561051F
:100C70007105C0F080939F029093A002A093A102FF
:100C8000B093A20280919E02812780939E0261E030
:100C9000882329F08BE592E00E942B0460E08DE030
:100CA0000E94CF010E948803C1CF3327F901EE5D76
:100CB000FD4F8491F901E452FE4F2490F901EA5668
:100CC000FE4F3490332079F081110E946801E32DAA
:100CD000F0E0EE0FFF1FE85BFE4FA591B491EC91A1
:100CE0002E2209F086CF81E992E00E94B9030633F3
:100CF000110584F4B801012E000C880B990B17FF25
:100D000014C00E940A0486E492E00E942B04109210
:100D1000A30272CF84E492E00E94B903B801665343
:100D20007109072E000C880B990B4AE00E94C6033C
:100D3000EACFEDEAF2E01382128288EE93E0A0E0BF
:100D4000B0E084839583A683B78384E092E09183A7
:100D5000808385EC90E09587848784EC90E097878A
:100D6000868780EC90E0918B808B81EC90E0938B78
:100D7000828B82EC90E0958B848B86EC90E0978B55
:100D8000868B118E128E138E148E0895A1E21A2E68
:100D9000AA1BBB1BFD010DC0AA1FBB1FEE1FFF1F1F
:100DA000A217B307E407F50720F0A21BB30BE40B6F
:100DB000F50B661F771F881F991F1A9469F76095B6
:100DC0007095809590959B01AC01BD01CF01089570
:100DD000EE0FFF1F881F8BBF0790F691E02D19942F
:040DE000F894FFCFB5
:100DE400000000001B038502B2026803E302C10293
:100DF400D5020D0A002D2D2D204873686F702047F1
:100E040050494F2054455354494E4720536B657401
:100E1400636820666F72204D454741323536302075
:100E24002D2D2D0041002069732053484F52544505
:100E340044206F72204552524F52002D2D2D202DEB
:100E44002D2D202D2D2D207C7C7C20416C6C204769
:100E540050494F2050696E206973204F4B415921EE
:100E6400207C7C7C202D2D2D202D2D2D202D2D2DF5
:0E0E7400004D61796265204750494F20000013
:00000001FF
