:100000000C9462000C948A000C948A000C948A0070
:100010000C948A000C948A000C948A000C948A0038
:100020000C948A000C948A000C948A000C948A0028
:100030000C948A000C948A000C948A000C948A0018
:100040000C9410030C948A000C9480030C945A03B3
:100050000C948A000C948A000C948A000C948A00F8
:100060000C948A000C948A000000000023002600F3
:10007000290000000000240027002A0000000000E2
:10008000250028002B0004040404040404040202D4
:100090000202020203030303030301020408102007
:1000A0004080010204081020010204081020000012
:1000B0000008000201000003040700000000000027
:1000C0000000270511241FBECFEFD8E0DEBFCDBF53
:1000D00011E0A0E0B1E0ECEFFAE002C005900D9273
:1000E000AA3CB107D9F722E0AAECB1E001C01D9209
:1000F000A637B207E1F710E0C2E6D0E004C02197CE
:10010000FE010E947605C136D107C9F70E94B203ED
:100110000C947C050C940000833081F028F481302D
:1001200099F08230A9F008958730A9F08830C9F09D
:100130008430B1F4809180008F7D03C08091800075
:100140008F7780938000089584B58F7784BD08955C
:1001500084B58F7DFBCF8091B0008F778093B00006
:1001600008958091B0008F7DF9CF1F93CF93DF93D7
:10017000282F30E0F901E255FF4F8491F901E6564E
:10018000FF4FD491F901EA57FF4FC491CC23A9F056
:10019000162F81110E948C00EC2FF0E0EE0FFF1F54
:1001A000E458FF4FA591B4918FB7F894EC911111D9
:1001B00008C0D095DE23DC938FBFDF91CF911F91D4
:1001C0000895DE2BF8CFCF93DF9390E0FC01E65645
:1001D000FF4F24918A579F4FFC0184918823D1F0CF
:1001E00090E0880F991FFC01EE58FF4FA591B49144
:1001F000FC01E458FF4FC591D491623071F49FB770
:10020000F8943C91822F809583238C93E8812E2B48
:1002100028839FBFDF91CF9108958FB7F894EC9119
:100220002E2B2C938FBFF6CF3FB7F8948091D5013A
:100230009091D601A091D701B091D80126B5A89B85
:1002400005C02F3F19F00196A11DB11D3FBFBA2F68
:10025000A92F982F8827BC01CD01620F711D811D28
:10026000911D42E0660F771F881F991F4A95D1F7AD
:1002700008958F929F92AF92BF92CF92DF92EF92AA
:10028000FF924B015C010E9414016B017C010E94F2
:1002900014016C197D098E099F09683E7340810520
:1002A0009105A8F321E0821A9108A108B10888EE0F
:1002B000C80E83E0D81EE11CF11C81149104A10436
:1002C000B10429F7FF90EF90DF90CF90BF90AF90EF
:1002D0009F908F900895AF92BF92CF92DF92EF924E
:1002E000FF920F931F93CF93DF936C017B018B01E0
:1002F000040F151FEB015E01AE18BF08C017D10730
:1003000059F06991D601ED91FC910190F081E02DB9
:10031000C6010995892B79F7C501DF91CF911F910E
:100320000F91FF90EF90DF90CF90BF90AF90089526
:10033000FC01538D448D252F30E0842F90E0821BEB
:10034000930B541710F0CF96089501970895FC0170
:10035000918D828D981761F0A28DAE0FBF2FB11DC8
:100360005D968C91928D9F5F9F73928F90E0089520
:100370008FEF9FEF0895FC01918D828D981731F0DA
:10038000828DE80FF11D858D90E008958FEF9FEF2E
:100390000895FC01918D228D892F90E0805C9F4F04
:1003A000821B91098F739927089589ED91E00E942E
:1003B000C90121E0892B09F420E0822F089580E013
:1003C00090E0892B29F00E94D50181110C94000046
:1003D0000895FC01A48DA80FB92FB11DA35ABF4FDA
:1003E0002C91848D90E001968F739927848FA68934
:1003F000B7892C93A089B1898C91837080648C9388
:10040000938D848D981306C00288F389E02D808136
:100410008F7D80830895EF92FF920F931F93CF9368
:10042000DF93EC0181E0888F9B8D8C8D98131AC02F
:10043000E889F989808185FF15C09FB7F894EE8916
:10044000FF896083E889F989808183708064808373
:100450009FBF81E090E0DF91CF911F910F91FF90BE
:10046000EF900895F62E0B8D10E00F5F1F4F0F7366
:100470001127E02E8C8D8E110CC00FB607FCFACF21
:10048000E889F989808185FFF5CFCE010E94E901D5
:10049000F1CFEB8DEC0FFD2FF11DE35AFF4FF082F2
:1004A0009FB7F8940B8FEA89FB8980818062CFCF58
:1004B000CF93DF93EC01888D8823B9F0AA89BB899B
:1004C000E889F9898C9185FD03C0808186FD0DC086
:1004D0000FB607FCF7CF8C9185FFF2CF808185FFA7
:1004E000EDCFCE010E94E901E9CFDF91CF910895D0
:1004F000FC0101900020E9F73197AF01481B590B2F
:10050000BC0189ED91E00C946B01CF93DF930E94C5
:100510007802EC0186E391E00E9478028C0F9D1F27
:10052000DF91CF9108958F929F92AF92BF92CF9219
:10053000DF92EF92FF920F931F93CF93DF93CDB78C
:10054000DEB7A1970FB6F894DEBF0FBECDBF6C012A
:10055000990FEE08FF08F7FE41C06DE289ED91E0CA
:100560000E940B028C0122273327A9012C193D0977
:100570004E095F0919A2CE0181967C019AE0892E6D
:10058000912CA12CB12CCA01B901A50194010E94A2
:100590005405605DF70162937F0121153105410526
:1005A000510589F790E080E0309719F0CF010E9463
:1005B0007802800F911FA1960FB6F894DEBF0FBE90
:1005C000CDBFDF91CF911F910F91FF90EF90DF9002
:1005D000CF90BF90AF909F908F900895A701960104
:1005E00019A28E010F5D1F4F8AE0C82ED12CE12C7D
:1005F000F12CCA01B901A70196010E945405605D62
:10060000F80162938F01211531054105510589F7E4
:1006100090E080E0309779F2CF010E947802CBCF52
:100620001F920F920FB60F9211242F933F938F9327
:100630009F93AF93BF938091D1019091D201A091EC
:10064000D301B091D4013091D00123E0230F2D3795
:1006500058F50196A11DB11D2093D0018093D101C1
:100660009093D201A093D301B093D4018091D5018E
:100670009091D601A091D701B091D8010196A11D0A
:10068000B11D8093D5019093D601A093D701B0936B
:10069000D801BF91AF919F918F913F912F910F9072
:1006A0000FBE0F901F90189526E8230F0296A11DEC
:1006B000B11DD2CF1F920F920FB60F9211242F931C
:1006C0003F934F935F936F937F938F939F93AF93DA
:1006D000BF93EF93FF9389ED91E00E94E901FF91B1
:1006E000EF91BF91AF919F918F917F916F915F91AA
:1006F0004F913F912F910F900FBE0F901F90189523
:100700001F920F920FB60F9211242F938F939F93E6
:10071000EF93FF93E091E901F091EA018081E0918C
:10072000EF01F091F00182FD1BC090818091F201F8
:100730008F5F8F732091F301821741F0E091F201F6
:10074000F0E0E752FE4F958F8093F201FF91EF9119
:100750009F918F912F910F900FBE0F901F90189522
:100760008081F4CFCF93DF93CDB7DEB7A4970FB6D8
:10077000F894DEBF0FBECDBF789484B5826084BD8F
:1007800084B5816084BD85B5826085BD85B5816095
:1007900085BD80916E00816080936E001092810013
:1007A00080918100826080938100809181008160CE
:1007B000809381008091800081608093800080918F
:1007C000B10084608093B1008091B000816080931B
:1007D000B00080917A00846080937A0080917A00E2
:1007E000826080937A0080917A00816080937A00A1
:1007F00080917A00806880937A001092C100E09125
:10080000E901F091EA0182E08083E091E501F09155
:10081000E6011082E091E701F091E80180E1808338
:100820001092F101E091ED01F091EE0186E08083FC
:10083000E091EB01F091EC01808180618083E09197
:10084000EB01F091EC01808188608083E091EB0105
:10085000F091EC01808180688083E091EB01F09160
:10086000EC0180818F7D808369E170E080E090E021
:100870000E94390189E391E00E9485028BE591E0B5
:100880000E94850212E062E0812F0E94E3001F5F58
:100890001E30C9F762E0812F0E94E3001F5F143110
:1008A000C9F784E2E0E0F1E0DE01119601900D92DB
:1008B0008A95E1F781E08093CF01CE0101966C012A
:1008C0003E0195E2690E711C5601F50101911191ED
:1008D0005F01CE0101967C01F7018081F2E0EF0E0D
:1008E000F11C62E00E94E3006E147F04A9F761E04E
:1008F000802F0E94E30060E0802F0E94B50065E039
:1009000070E080E090E00E943901CE0101964C0138
:10091000F401219131914F010217130709F061C0D1
:1009200068147904A9F7AE14BF0479F6F601808142
:10093000F2E0CF0ED11C62E00E94E300CA14DB0497
:10094000A9F761E08DE00E94E300FF24F39400E04A
:1009500010E08091CF018823C1F12FB7F8948091E6
:10096000D1019091D201A091D301B091D4012FBFB8
:100970004091CB015091CC016091CD017091CE019D
:100980005C016D01A41AB50AC60AD70AB601A50111
:100990004436510561057105C0F08093CB019093F9
:1009A000CC01A093CD01B093CE018091CA018F25D7
:1009B0008093CA0161E0882329F087E891E00E94D2
:1009C000850260E08DE00E94B5000115110509F473
:1009D000C0CF0E94D501882309F4BBCF0E9400003C
:1009E000B8CF3327F901E255FF4F8491F901E6565C
:1009F000FF4F5490F901EA57FF4F4490442079F09B
:100A000081110E948C00E42DF0E0EE0FFF1FE859E9
:100A1000FF4FA591B491EC915E2209F081CF8DEB4F
:100A200091E00E9478020E30110514F4C80106C04E
:100A300080E791E00E947802C8010E970E9493021D
:100A400082E791E00E9485021092CF016CCFE9ED20
:100A5000F1E01382128288EE93E0A0E0B0E084839C
:100A60009583A683B78388E291E09183808385ECA8
:100A700090E09587848784EC90E09787868780EC68
:100A800090E0918B808B81EC90E0938B828B82EC59
:100A900090E0958B848B86EC90E0978B868B118E03
:100AA000128E138E148E0895A1E21A2EAA1BBB1B60
:100AB000FD010DC0AA1FBB1FEE1FFF1FA217B3072A
:100AC000E407F50720F0A21BB30BE40BF50B661F40
:100AD000771F881F991F1A9469F760957095809504
:100AE00090959B01AC01BD01CF010895EE0FFF1F52
:0C0AF0000590F491E02D0994F894FFCFDC
:100AFC0002000300040005000600070008000900BE
:100B0C000A000B000C000D000E000F00100011006D
:100B1C0012001300000000000B026B019801580238
:100B2C00C901A701BB010D0A002D2D2D20487368AA
:100B3C006F70204750494F2054455354494E47201D
:100B4C00536B65746368202D2D2D00417574686F8F
:100B5C00723A2044616E69656C20486F616E670063
:100B6C0041002069732053484F52544544206F7202
:100B7C00204552524F52002D2D2D202D2D2D202D44
:100B8C002D2D207C7C7C20416C6C204750494F20C3
:100B9C0050696E206973204F4B415921207C7C7C1D
:100BAC00202D2D2D202D2D2D202D2D2D004D61791D
:0A0BBC006265204750494F200000F9
:00000001FF
