:100000000C94D5000C94FD000C94FD000C94FD00A4
:100010000C94FD000C94FD000C94FD000C94FD006C
:100020000C94FD000C94FD000C94CF040C943E0540
:100030000C94FD000C94FD000C94FD000C94FD004C
:100040000C94FD000C94FD000C94FD000C94FD003C
:100050000C94FD000C94FD000C94FD000C948504A0
:100060000C94FD000C94FD000C94FD000C94FD001C
:100070000C94FD000C94FD000C94FD000C94FD000C
:100080000C94FD000C94FD000C94FD000C94FD00FC
:100090000C94FD000C94FD000C94FD000C94FD00EC
:1000A0000C94FD000C94FD000C94FD00080B000264
:1000B0000202000009040000010202000005240001
:1000C0001001052401010104240206052406000193
:1000D0000705810310004009040100020A00000026
:1000E00007050202400000070583024000000403E8
:1000F000090412010002EF02014041233680000191
:100100000102030141726475696E6F204C4C43001B
:1001100041726475696E6F204C656F6E6172646FB9
:1001200000000000002300260029002C002F000002
:1001300000000200090F0000030401000C00000091
:1001400000000000000000000000000000000000AF
:100150000000250028002B002E00310000000000C8
:10016000240027002A002D003000040404040403A6
:100170000405020202020403020202020606060647
:10018000060604040202020404040802011040806E
:10019000401020408040800802040180402010026E
:1001A0000110801020404020110911241FBECFEF04
:1001B000DAE0DEBFCDBF11E0A0E0B1E0E0EAF2E1BD
:1001C00002C005900D92A63EB107D9F722E0A6EE37
:1001D000B1E001C01D92AA35B207E1F710E0C5ED0C
:1001E000D0E004C02197FE010E944809C43DD10718
:1001F000C9F70E9470070C944E090C940000FC0192
:1002000080910902882311F13FB7F89482E080932E
:10021000E9002091F200822F90E01816190614F4DC
:1002200081E090E0882339F0289844E64093080262
:100230004091F1004083222339F02091F2002111F6
:1002400003C02BE62093E8003FBF08958FEF9FEF98
:1002500008952FB7F89483E08093E9009091E80027
:10026000892F807295FF04C09091F20080E4891B71
:100270002FBF08958091000281110DC082E080930C
:10028000FC0184E08093FD011092FF011092FE01B9
:1002900081E0809300028CEF91E0089581508F30CF
:1002A00008F047C0E82FF0E0E85AFE4F0C944809E8
:1002B0007501790167016D01710199019901990138
:1002C0007C01820186018A0190019901940180914B
:1002D00080008F77809380000895809180008F7DCB
:1002E000F9CF80918000877FF5CF84B58F7784BD6B
:1002F000089584B58F7DFBCF809190008F77809398
:1003000090000895809190008F7DF9CF80919000AA
:10031000877FF5CF8091C0008F778093C0000895CC
:100320008091C0008F7DF9CF8091C200877F80933C
:10033000C2000895CF93DF9390E0FC01E757FE4F92
:10034000249186599E4FFC0184918823D1F090E03E
:10035000880F991FFC01E45AFE4FA591B491FC014E
:10036000E25BFE4FC591D491623071F49FB7F8946F
:100370003C91822F809583238C93E8812E2B2883B8
:100380009FBFDF91CF9108958FB7F894EC912E2BFA
:100390002C938FBFF6CF3FB7F8948091F8019091DE
:1003A000F901A091FA01B091FB0126B5A89B05C007
:1003B0002F3F19F00196A11DB11D3FBFBA2FA92FE4
:1003C000982F8827BC01CD01620F711D811D911DE1
:1003D00042E0660F771F881F991F4A95D1F708954D
:1003E0008F929F92AF92BF92CF92DF92EF92FF9245
:1003F0004B015C010E94CB016B017C010E94CB018F
:100400006C197D098E099F09683E7340810591052D
:10041000A8F321E0821A9108A108B10888EEC80E5D
:1004200083E0D81EE11CF11C81149104A104B104E5
:1004300029F7FF90EF90DF90CF90BF90AF909F9003
:100440008F9008954091E8015091E9012091E601D3
:100450003091E70142175307B4F49091E80095708A
:10046000E1F39091E80092FD19C08093F100809132
:10047000E8019091E90101968F739927892B19F46E
:100480008EEF8093E8008091E8019091E901019658
:100490009093E9018093E80181E0089580E0089558
:1004A000EF92FF920F931F93CF93DF93F82E192FA4
:1004B000E62E042F81E0860F880F0E94220283E03F
:1004C0000E942202CF2DD12FEC0EFD2EF11CCE1555
:1004D000DF05B9F007FF13C0FE0184910E942202DC
:1004E000182F80E00E942202812321968111EFCFF4
:1004F000DF91CF911F910F91FF90EF900895888128
:10050000EDCF81E0F5CFDF92EF92FF920F931F9333
:10051000CF93DF93D82E8A01EB017B01E40EF51E09
:10052000CE15DF0559F0D7FE12C0FE0184910E945E
:10053000220221968111F4CF0FEF1FEFC801DF9146
:10054000CF911F910F91FF90EF90DF9008958881D8
:10055000EECF0F931F93CF93DF931F92CDB7DEB7EC
:1005600082E0898342E450E06CEA70E080E80E9417
:1005700083020E943A01DC0112960D911C91011533
:10058000110589F0D801ED91FC910280F381E02DF5
:10059000BE016F5F7F4FC801099597FD04C0F80148
:1005A00000851185ECCF89810F90DF91CF911F914C
:1005B0000F910895615030F02091F100FC012083EB
:1005C0000196F8CF289884E68093080208958F92C8
:1005D0009F92AF92BF92CF92DF92EF92FF920F93D2
:1005E0001F93CF93DF936C017B018A0180910B01F4
:1005F000882309F45CC080910902882309F457C05C
:100600008091EC0180FF05C08091E00082608093C2
:10061000E000E801B12C8AEFA82E93E0892E2AE3AE
:10062000922E209711F4BB20D9F10E94290181114B
:100630000AC0AA94AA20D9F161E070E080E090E0BD
:100640000E94F001EECF8C171D0611F00CF08C2FDC
:100650009FB7F8948092E9002091E80025FD02C040
:100660009FBFDFCF282F30E0C21BD30BF701815093
:1006700020F041914093F100FACFE20EF31EBB202F
:1006800021F09092E800B12CEBCF8091E80085FD3D
:10069000E7CF9092E800BB24B394209709F3F3CFFF
:1006A0005D9884E68093EB01101611063CF081E022
:1006B00090E0F6019383828310E000E0C801DF91AF
:1006C000CF911F910F91FF90EF90DF90CF90BF904F
:1006D000AF909F908F900895CF93DF931F92CDB7E7
:1006E000DEB76983DC01ED91FC910280F381E02D9E
:1006F00041E050E0BE016F5F7F4F09950F90DF91A1
:10070000CF91089583E08093E9008091F2008823DF
:1007100019F08AE38093E80008950E94290190E08F
:100720000895CF93DF931F92CDB7DEB7FC01848588
:10073000958597FD08C02FEF3FEF358724870F90F1
:10074000DF91CF910895CE0101960E94FF0001979D
:1007500019F4898190E0F3CF8FEF9FEFF0CF0F93E3
:100760001F93CF93DF931F92CDB7DEB78C01FC01AF
:100770008485958597FF0BC0CE0101960E94FF00EE
:10078000019771F4898190E0F80195878487F801D9
:10079000848595850F90DF91CF911F910F910895DA
:1007A0008FEF9FEFF1CFFC018485958597FD0BC0FE
:1007B0009FB7F89482E08093E9008091F2009FBF98
:1007C00090E0019608959FB7F89482E08093E90045
:1007D0008091F2009FBF90E00895FC0101900020FD
:1007E000E9F73197AF01481B590BBC018AE092E051
:1007F0000C94E702CF93DF930E94ED03EC0185E4B4
:1008000091E00E94ED038C0F9D1FDF91CF91089521
:100810008F929F92AF92BF92CF92DF92EF92FF9210
:100820000F931F93CF93DF93CDB7DEB7A1970FB68A
:10083000F894DEBF0FBECDBF6C01990FEE08FF0824
:10084000F7FE41C06DE28AE092E00E946C038C01E9
:1008500022273327A9012C193D094E095F0919A246
:10086000CE0181967C019AE0892E912CA12CB12C8D
:10087000CA01B901A50194010E942609605DF70132
:1008800062937F01211531054105510589F790E0FB
:1008900080E0309719F0CF010E94ED03800F911F87
:1008A000A1960FB6F894DEBF0FBECDBFDF91CF91FA
:1008B0001F910F91FF90EF90DF90CF90BF90AF907E
:1008C0009F908F900895A701960119A28E010F5D48
:1008D0001F4F8AE0C82ED12CE12CF12CCA01B9019E
:1008E000A70196010E942609605DF80162938F01BD
:1008F000211531054105510589F790E080E03097D9
:1009000079F2CF010E94ED03CBCF1F920F920FB669
:100910000F9211242F933F938F939F93AF93BF9385
:100920008091F4019091F501A091F601B091F70149
:100930003091F30123E0230F2D3758F50196A11DC7
:10094000B11D2093F3018093F4019093F501A093DE
:10095000F601B093F7018091F8019091F901A0910F
:10096000FA01B091FB010196A11DB11D8093F80120
:100970009093F901A093FA01B093FB01BF91AF915D
:100980009F918F913F912F910F900FBE0F901F90CD
:10099000189526E8230F0296A11DB11DD2CF1F92F4
:1009A0000F920FB60F9211248F939F938091E100C5
:1009B0009091E100937F9093E10083FF0FC010922C
:1009C000E90091E09093EB001092EC0092E3909399
:1009D000ED001092090298E09093F00082FF22C08F
:1009E00093E09093E9009091F200992319F09AE333
:1009F0009093E8009091EB01992341F09091EB01E5
:100A000091509093EB01911101C05D9A9091080271
:100A1000992341F09091080291509093080291110E
:100A200001C0289A84FF18C08091E2008E7E816008
:100A30008093E2008091E1008F7E8093E1008091BD
:100A4000EC018E7E80618093EC019F918F910F90DD
:100A50000FBE0F901F90189580FFF7CF8091E20096
:100A60008E7E80618093E2008091E1008E7E809393
:100A7000E1008091EC018E7E8160E5CF1F920F92A4
:100A80000FB60F921124CF92DF92EF92FF920F9345
:100A90001F932F933F934F935F936F937F938F9306
:100AA0009F93AF93BF93EF93FF93CF93DF93CDB714
:100AB000DEB76C97DEBFCDBF1092E9008091E800F1
:100AC00083FF25C068E0CE0145960E94DA0282EFDE
:100AD0008093E8008D8987FF39C09091E80090FFEE
:100AE000FCCF982F907609F034C19E894F89588D9C
:100AF0002F89F88C911131C0803861F58091ED011A
:100B00008093F1001092F1008EEF8093E8006C96D4
:100B10000FB6F894DEBF0FBECDBFDF91CF91FF912E
:100B2000EF91BF91AF919F918F917F916F915F9165
:100B30004F913F912F911F910F91FF90EF90DF9078
:100B4000CF900F900FBE0F901F9018959EEF90932F
:100B5000E800C7CF1092F100D5CF913059F4811140
:100B6000D3CF4130510581F68091ED018D7F809387
:100B7000ED01CACF933049F48111C6CF4130510500
:100B800019F68091ED018260F2CF953041F48091A9
:100B9000E80080FFFCCF20682093E300B5CF9630BB
:100BA00009F0A9C00B8D1C8D22E01092E900109273
:100BB000E9011092E801F2122EC01092E7011092A2
:100BC000E6010E94A9021F8299E09983FA8291E0CE
:100BD0009E8390EA98879AEF99872091E801309157
:100BE000E901275F3F4F3C832B838D831092E900FF
:100BF0001092E9011092E8011093E7010093E601D9
:100C000049E050E0BE016F5F7F4F80E00E948302A9
:100C10000E94A90279CF1093E7010093E6010E9498
:100C20003A01DC0112960D911C910115110509F490
:100C300051C1D801ED91FC910480F581E02DBE01F8
:100C40006B5E7F4FC8010995009709F03EC1F8011E
:100C500000851185EACFF3E0FF120EC08F8988234B
:100C600009F440C0823061F440E860E180E191E045
:100C70000E945002811148CF81E28093EB0047CF60
:100C8000813029F440E86BE084E091E0F1CF8330DB
:100C900099F70E943A01DC011296ED90FC908E01CA
:100CA0000F5F1F4F6801E114F10479F0D701ED9156
:100CB000FC910680F781E02DB801C7010995080F66
:100CC000111DF701E084F184EECFD8011C92F601EA
:100CD00001900020E9F73197BF016C197D0940E0D0
:100CE000C601C6CF6EEE70E0FB01449150E080E893
:100CF0000E94830209CF973009F4BECF983021F4C7
:100D000081E08093F10000CF993009F0FDCE83702F
:100D100009F0B2CFEFE3F1E081E031E096E3219119
:100D2000222371F08093E9003093EB00DF011197EB
:100D30002C912093EC009093ED008F5F873079F732
:100D40008EE78093EA001092EA008F89809309026F
:100D5000DBCE8B8D9C8D1092E9001092E9011092F0
:100D6000E8019093E7018093E601898D811192C09B
:100D70008E899D89913A49F4813209F07DCF47E00F
:100D800050E064E071E080E0B3CF913209F074CFBD
:100D9000833269F48F89988DB0E0A0E080930001E0
:100DA00090930101A0930201B0930301ADCE803274
:100DB00069F48091E80082FFFCCF67E084E091E075
:100DC0000E94DA028BEF8093E8009ECE823209F017
:100DD0009BCE8F8980930B01EEEFFFE78591949175
:100DE0008B3F9C4D51F1E0E0F8E08091040190913F
:100DF0000501A0910601B0910701803B9440A10537
:100E0000B105F1F480910B0180FD1AC0EE3F8AE03C
:100E1000F80789F587E797E79183808380916000E1
:100E20008093EA0188E19BE00FB6F894A89580933F
:100E300060000FBE9093600067CEEEEFFAE0D5CF72
:100E4000808191818737974709F05ECEA895809180
:100E500060008861809360008091EA018093600067
:100E6000EE3F2AE0F20789F08091FE0A9091FF0A96
:100E70009183808349CE808191818737980751F291
:100E80009093FF0A8093FE0AC5CF1092FF0A10923A
:100E9000FE0A3ACE0E943A01DC0112960D911C9195
:100EA0000115110509F4E8CED801ED91FC910190EE
:100EB000F081E02DBE016B5E7F4FC8010995811165
:100EC00023CEF80100851185EBCF181619060CF416
:100ED0001BCED2CEF1E0FF12BECE62EF70E004CFA7
:100EE000CF93DF93CDB7DEB7A0970FB6F894DEBFF0
:100EF0000FBECDBF789484B5826084BD84B5816017
:100F000084BD85B5826085BD85B5816085BD8091D4
:100F10006E00816080936E0010928100809181004C
:100F20008260809381008091810081608093810044
:100F30008091800081608093800080919100826028
:100F400080939100809191008160809391008091C5
:100F500090008160809390008091C10084608093B4
:100F6000C1008091C10082608093C1008091C10066
:100F700081608093C1008091C30081608093C30031
:100F80008091C00082608093C0008091C200816027
:100F90008093C20080917A00846080937A0080916F
:100FA0007A00826080937A0080917A0081608093D9
:100FB0007A0080917A00806880937A00109209020A
:100FC0001092ED011092EC018091D7008160809326
:100FD000D70080EA8093D80089B5806189BD89B542
:100FE000826089BD09B400FEFDCF61E070E080E061
:100FF00090E00E94F0018091D8008F7C8061809306
:10100000D8008091E000807F8093E0008091E10033
:101010008E7E8093E1008DE08093E200559A209AC5
:101020008FEF9FEF909317028093160269E170E0B3
:1010300080E090E00E94F00188E491E00E94FA03D1
:1010400087E791E00E94FA0312E062E0812F0E949C
:101050009A011F5F1D30C9F712E162E0812F0E94E3
:101060009A011F5F1731C9F780E2ECE0F1E0DE0181
:10107000119601900D928A95E1F781E08093F2013B
:10108000CE0101965C013E0191E2690E711C650181
:10109000F601019111916F01CE0101967C01F701DA
:1010A0008081F2E0EF0EF11C62E00E949A016E1462
:1010B0007F04A9F761E0802F0E949A0198013327ED
:1010C000F901E15DFE4F8491F901E757FE4F9490DD
:1010D000F901E659FE4F8490882091F081110E9419
:1010E0004E01E82DF0E0EE0FFF1FE25BFE4FA591F1
:1010F000B4918FB7F894EC9190949E229C928FBFFC
:1011000065E070E080E090E00E94F001CE01019681
:101110004C01F401219131914F010217130709F09D
:101120004AC086149704A9F7CE14DF0409F0B0CFA3
:10113000F5018081F2E0AF0EB11C62E00E949A01DD
:10114000CA14DB04A9F700E010E08091F2018823C3
:1011500061F12FB7F8948091F4019091F501A0917D
:10116000F601B091F7012FBF4091EE015091EF01D0
:101170006091F0017091F1016C017D01C41AD50AF2
:10118000E60AF70AB701A6014A3F51056105710554
:1011900060F08093EE019093EF01A093F001B09383
:1011A000F10183EA91E00E94FA030115110569F249
:1011B0000E940000CACF3327F901E15DFE4F849100
:1011C000F901E757FE4F5490F901E659FE4F44905C
:1011D000442079F081110E944E01E42DF0E0EE0FE1
:1011E000FF1FEF5DFE4FA591B491EC915E2209F0D7
:1011F00098CF89ED91E00E94ED030231110514F4BE
:10120000C80106C08CE891E00E94ED03C801429736
:101210000E9408048EE891E00E94FA031092F20105
:1012200083CFEAE0F2E01382128288EE93E0A0E03E
:10123000B0E084839583A683B78380E391E09183B4
:1012400080838FEF9FEF958784870895A1E21A2E00
:10125000AA1BBB1BFD010DC0AA1FBB1FEE1FFF1F5A
:10126000A217B307E407F50720F0A21BB30BE40BAA
:10127000F50B661F771F881F991F1A9469F76095F1
:101280007095809590959B01AC01BD01CF010895AB
:10129000EE0FFF1F0590F491E02D0994F894FFCF15
:1012A000FFFFFFFF00E1000000000000020003005C
:1012B0000400050006000700080009000A000B00F2
:1012C0000C001200130014001500160000000000AE
:1012D0006C03E7028D038203D3039103AF0300C1C4
:1012E00080810000000D0A002D2D2D204873686FAD
:1012F00070204750494F2054455354494E4720537E
:101300006B6574636820666F722050726F4D6963FD
:10131000726F202D2D2D00417574686F723A204434
:10132000616E69656C20486F616E670041002069DD
:10133000732053484F52544544206F7220455252F7
:101340004F52002D2D2D202D2D2D202D2D2D207C8B
:101350007C7C20416C6C204750494F2050696E20A6
:101360006973204F4B415921207C7C7C202D2D2DF1
:10137000202D2D2D202D2D2D004D617962652047CA
:0613800050494F2000005F
:00000001FF
